{
	"contracts/SmartContractWallet.sol": {
		"SmartContractWallet": {
			"abi": [
				{
					"inputs": [],
					"stateMutability": "nonpayable",
					"type": "constructor"
				},
				{
					"inputs": [
						{
							"internalType": "address",
							"name": "",
							"type": "address"
						}
					],
					"name": "allowance",
					"outputs": [
						{
							"internalType": "uint256",
							"name": "",
							"type": "uint256"
						}
					],
					"stateMutability": "view",
					"type": "function"
				},
				{
					"inputs": [],
					"name": "confirmationFromGuardiansForReset",
					"outputs": [
						{
							"internalType": "uint256",
							"name": "",
							"type": "uint256"
						}
					],
					"stateMutability": "view",
					"type": "function"
				},
				{
					"inputs": [
						{
							"internalType": "address",
							"name": "",
							"type": "address"
						}
					],
					"name": "guardians",
					"outputs": [
						{
							"internalType": "bool",
							"name": "",
							"type": "bool"
						}
					],
					"stateMutability": "view",
					"type": "function"
				},
				{
					"inputs": [
						{
							"internalType": "address",
							"name": "",
							"type": "address"
						}
					],
					"name": "isAllowedToSend",
					"outputs": [
						{
							"internalType": "bool",
							"name": "",
							"type": "bool"
						}
					],
					"stateMutability": "view",
					"type": "function"
				},
				{
					"inputs": [],
					"name": "owner",
					"outputs": [
						{
							"internalType": "address payable",
							"name": "",
							"type": "address"
						}
					],
					"stateMutability": "view",
					"type": "function"
				},
				{
					"inputs": [
						{
							"internalType": "address payable",
							"name": "_newOwner",
							"type": "address"
						}
					],
					"name": "proposeNewOwner",
					"outputs": [],
					"stateMutability": "nonpayable",
					"type": "function"
				},
				{
					"inputs": [
						{
							"internalType": "address",
							"name": "_for",
							"type": "address"
						},
						{
							"internalType": "uint256",
							"name": "_amount",
							"type": "uint256"
						}
					],
					"name": "setAllowance",
					"outputs": [],
					"stateMutability": "nonpayable",
					"type": "function"
				},
				{
					"inputs": [
						{
							"internalType": "address",
							"name": "_guardian",
							"type": "address"
						},
						{
							"internalType": "bool",
							"name": "_isGuardian",
							"type": "bool"
						}
					],
					"name": "setGuardian",
					"outputs": [],
					"stateMutability": "nonpayable",
					"type": "function"
				},
				{
					"inputs": [
						{
							"internalType": "address payable",
							"name": "_to",
							"type": "address"
						},
						{
							"internalType": "uint256",
							"name": "_amount",
							"type": "uint256"
						},
						{
							"internalType": "bytes",
							"name": "_payload",
							"type": "bytes"
						}
					],
					"name": "transfer",
					"outputs": [
						{
							"internalType": "bytes",
							"name": "",
							"type": "bytes"
						}
					],
					"stateMutability": "nonpayable",
					"type": "function"
				},
				{
					"stateMutability": "payable",
					"type": "receive"
				}
			],
			"devdoc": {
				"kind": "dev",
				"methods": {},
				"version": 1
			},
			"evm": {
				"assembly": "    /* \"contracts/SmartContractWallet.sol\":218:2498  contract SmartContractWallet {... */\n  mstore(0x40, 0x80)\n    /* \"contracts/SmartContractWallet.sol\":639:697  constructor() {... */\n  callvalue\n  dup1\n  iszero\n  tag_1\n  jumpi\n  0x00\n  dup1\n  revert\ntag_1:\n  pop\n    /* \"contracts/SmartContractWallet.sol\":679:689  msg.sender */\n  caller\n    /* \"contracts/SmartContractWallet.sol\":663:668  owner */\n  0x00\n  dup1\n    /* \"contracts/SmartContractWallet.sol\":663:690  owner = payable(msg.sender) */\n  0x0100\n  exp\n  dup2\n  sload\n  dup2\n  0xffffffffffffffffffffffffffffffffffffffff\n  mul\n  not\n  and\n  swap1\n  dup4\n  0xffffffffffffffffffffffffffffffffffffffff\n  and\n  mul\n  or\n  swap1\n  sstore\n  pop\n    /* \"contracts/SmartContractWallet.sol\":218:2498  contract SmartContractWallet {... */\n  dataSize(sub_0)\n  dup1\n  dataOffset(sub_0)\n  0x00\n  codecopy\n  0x00\n  return\nstop\n\nsub_0: assembly {\n        /* \"contracts/SmartContractWallet.sol\":218:2498  contract SmartContractWallet {... */\n      mstore(0x40, 0x80)\n      jumpi(tag_1, lt(calldatasize, 0x04))\n      shr(0xe0, calldataload(0x00))\n      dup1\n      0x3e5beab9\n      gt\n      tag_12\n      jumpi\n      dup1\n      0x3e5beab9\n      eq\n      tag_7\n      jumpi\n      dup1\n      0x58e404b1\n      eq\n      tag_8\n      jumpi\n      dup1\n      0x8da5cb5b\n      eq\n      tag_9\n      jumpi\n      dup1\n      0xb1f8100d\n      eq\n      tag_10\n      jumpi\n      dup1\n      0xbe45fd62\n      eq\n      tag_11\n      jumpi\n      jump(tag_2)\n    tag_12:\n      dup1\n      0x0633b14a\n      eq\n      tag_3\n      jumpi\n      dup1\n      0x0bc605ad\n      eq\n      tag_4\n      jumpi\n      dup1\n      0x2b8a1c5a\n      eq\n      tag_5\n      jumpi\n      dup1\n      0x310ec4a7\n      eq\n      tag_6\n      jumpi\n      jump(tag_2)\n    tag_1:\n      jumpi(tag_2, calldatasize)\n      stop\n    tag_2:\n      0x00\n      dup1\n      revert\n        /* \"contracts/SmartContractWallet.sol\":388:429  mapping(address => bool) public guardians */\n    tag_3:\n      callvalue\n      dup1\n      iszero\n      tag_15\n      jumpi\n      0x00\n      dup1\n      revert\n    tag_15:\n      pop\n      tag_16\n      0x04\n      dup1\n      calldatasize\n      sub\n      dup2\n      add\n      swap1\n      tag_17\n      swap2\n      swap1\n      tag_18\n      jump\t// in\n    tag_17:\n      tag_19\n      jump\t// in\n    tag_16:\n      mload(0x40)\n      tag_20\n      swap2\n      swap1\n      tag_21\n      jump\t// in\n    tag_20:\n      mload(0x40)\n      dup1\n      swap2\n      sub\n      swap1\n      return\n        /* \"contracts/SmartContractWallet.sol\":335:382  mapping(address => bool) public isAllowedToSend */\n    tag_4:\n      callvalue\n      dup1\n      iszero\n      tag_22\n      jumpi\n      0x00\n      dup1\n      revert\n    tag_22:\n      pop\n      tag_23\n      0x04\n      dup1\n      calldatasize\n      sub\n      dup2\n      add\n      swap1\n      tag_24\n      swap2\n      swap1\n      tag_18\n      jump\t// in\n    tag_24:\n      tag_25\n      jump\t// in\n    tag_23:\n      mload(0x40)\n      tag_26\n      swap2\n      swap1\n      tag_21\n      jump\t// in\n    tag_26:\n      mload(0x40)\n      dup1\n      swap2\n      sub\n      swap1\n      return\n        /* \"contracts/SmartContractWallet.sol\":703:892  function setGuardian(address _guardian, bool _isGuardian) public {... */\n    tag_5:\n      callvalue\n      dup1\n      iszero\n      tag_27\n      jumpi\n      0x00\n      dup1\n      revert\n    tag_27:\n      pop\n      tag_28\n      0x04\n      dup1\n      calldatasize\n      sub\n      dup2\n      add\n      swap1\n      tag_29\n      swap2\n      swap1\n      tag_30\n      jump\t// in\n    tag_29:\n      tag_31\n      jump\t// in\n    tag_28:\n      stop\n        /* \"contracts/SmartContractWallet.sol\":1441:1747  function setAllowance(address _for, uint _amount) public {... */\n    tag_6:\n      callvalue\n      dup1\n      iszero\n      tag_32\n      jumpi\n      0x00\n      dup1\n      revert\n    tag_32:\n      pop\n      tag_33\n      0x04\n      dup1\n      calldatasize\n      sub\n      dup2\n      add\n      swap1\n      tag_34\n      swap2\n      swap1\n      tag_35\n      jump\t// in\n    tag_34:\n      tag_36\n      jump\t// in\n    tag_33:\n      stop\n        /* \"contracts/SmartContractWallet.sol\":288:329  mapping(address => uint) public allowance */\n    tag_7:\n      callvalue\n      dup1\n      iszero\n      tag_37\n      jumpi\n      0x00\n      dup1\n      revert\n    tag_37:\n      pop\n      tag_38\n      0x04\n      dup1\n      calldatasize\n      sub\n      dup2\n      add\n      swap1\n      tag_39\n      swap2\n      swap1\n      tag_18\n      jump\t// in\n    tag_39:\n      tag_40\n      jump\t// in\n    tag_38:\n      mload(0x40)\n      tag_41\n      swap2\n      swap1\n      tag_42\n      jump\t// in\n    tag_41:\n      mload(0x40)\n      dup1\n      swap2\n      sub\n      swap1\n      return\n        /* \"contracts/SmartContractWallet.sol\":574:632  uint public constant confirmationFromGuardiansForReset = 3 */\n    tag_8:\n      callvalue\n      dup1\n      iszero\n      tag_43\n      jumpi\n      0x00\n      dup1\n      revert\n    tag_43:\n      pop\n      tag_44\n      tag_45\n      jump\t// in\n    tag_44:\n      mload(0x40)\n      tag_46\n      swap2\n      swap1\n      tag_42\n      jump\t// in\n    tag_46:\n      mload(0x40)\n      dup1\n      swap2\n      sub\n      swap1\n      return\n        /* \"contracts/SmartContractWallet.sol\":253:281  address payable public owner */\n    tag_9:\n      callvalue\n      dup1\n      iszero\n      tag_47\n      jumpi\n      0x00\n      dup1\n      revert\n    tag_47:\n      pop\n      tag_48\n      tag_49\n      jump\t// in\n    tag_48:\n      mload(0x40)\n      tag_50\n      swap2\n      swap1\n      tag_51\n      jump\t// in\n    tag_50:\n      mload(0x40)\n      dup1\n      swap2\n      sub\n      swap1\n      return\n        /* \"contracts/SmartContractWallet.sol\":898:1435  function proposeNewOwner(address payable _newOwner) public {... */\n    tag_10:\n      callvalue\n      dup1\n      iszero\n      tag_52\n      jumpi\n      0x00\n      dup1\n      revert\n    tag_52:\n      pop\n      tag_53\n      0x04\n      dup1\n      calldatasize\n      sub\n      dup2\n      add\n      swap1\n      tag_54\n      swap2\n      swap1\n      tag_55\n      jump\t// in\n    tag_54:\n      tag_56\n      jump\t// in\n    tag_53:\n      stop\n        /* \"contracts/SmartContractWallet.sol\":1753:2462  function transfer(address payable _to, uint _amount, bytes memory _payload) public returns(bytes memory) {... */\n    tag_11:\n      callvalue\n      dup1\n      iszero\n      tag_57\n      jumpi\n      0x00\n      dup1\n      revert\n    tag_57:\n      pop\n      tag_58\n      0x04\n      dup1\n      calldatasize\n      sub\n      dup2\n      add\n      swap1\n      tag_59\n      swap2\n      swap1\n      tag_60\n      jump\t// in\n    tag_59:\n      tag_61\n      jump\t// in\n    tag_58:\n      mload(0x40)\n      tag_62\n      swap2\n      swap1\n      tag_63\n      jump\t// in\n    tag_62:\n      mload(0x40)\n      dup1\n      swap2\n      sub\n      swap1\n      return\n        /* \"contracts/SmartContractWallet.sol\":388:429  mapping(address => bool) public guardians */\n    tag_19:\n      mstore(0x20, 0x03)\n      dup1\n      0x00\n      mstore\n      keccak256(0x00, 0x40)\n      0x00\n      swap2\n      pop\n      sload\n      swap1\n      0x0100\n      exp\n      swap1\n      div\n      0xff\n      and\n      dup2\n      jump\t// out\n        /* \"contracts/SmartContractWallet.sol\":335:382  mapping(address => bool) public isAllowedToSend */\n    tag_25:\n      mstore(0x20, 0x02)\n      dup1\n      0x00\n      mstore\n      keccak256(0x00, 0x40)\n      0x00\n      swap2\n      pop\n      sload\n      swap1\n      0x0100\n      exp\n      swap1\n      div\n      0xff\n      and\n      dup2\n      jump\t// out\n        /* \"contracts/SmartContractWallet.sol\":703:892  function setGuardian(address _guardian, bool _isGuardian) public {... */\n    tag_31:\n        /* \"contracts/SmartContractWallet.sol\":800:805  owner */\n      0x00\n      dup1\n      sload\n      swap1\n      0x0100\n      exp\n      swap1\n      div\n      0xffffffffffffffffffffffffffffffffffffffff\n      and\n        /* \"contracts/SmartContractWallet.sol\":786:805  msg.sender == owner */\n      0xffffffffffffffffffffffffffffffffffffffff\n      and\n        /* \"contracts/SmartContractWallet.sol\":786:796  msg.sender */\n      caller\n        /* \"contracts/SmartContractWallet.sol\":786:805  msg.sender == owner */\n      0xffffffffffffffffffffffffffffffffffffffff\n      and\n      eq\n        /* \"contracts/SmartContractWallet.sol\":778:841  require(msg.sender == owner, \"You are not the owner, aborting\") */\n      tag_65\n      jumpi\n      mload(0x40)\n      0x08c379a000000000000000000000000000000000000000000000000000000000\n      dup2\n      mstore\n      0x04\n      add\n      tag_66\n      swap1\n      tag_67\n      jump\t// in\n    tag_66:\n      mload(0x40)\n      dup1\n      swap2\n      sub\n      swap1\n      revert\n    tag_65:\n        /* \"contracts/SmartContractWallet.sol\":874:885  _isGuardian */\n      dup1\n        /* \"contracts/SmartContractWallet.sol\":851:860  guardians */\n      0x03\n        /* \"contracts/SmartContractWallet.sol\":851:871  guardians[_guardian] */\n      0x00\n        /* \"contracts/SmartContractWallet.sol\":861:870  _guardian */\n      dup5\n        /* \"contracts/SmartContractWallet.sol\":851:871  guardians[_guardian] */\n      0xffffffffffffffffffffffffffffffffffffffff\n      and\n      0xffffffffffffffffffffffffffffffffffffffff\n      and\n      dup2\n      mstore\n      0x20\n      add\n      swap1\n      dup2\n      mstore\n      0x20\n      add\n      0x00\n      keccak256\n      0x00\n        /* \"contracts/SmartContractWallet.sol\":851:885  guardians[_guardian] = _isGuardian */\n      0x0100\n      exp\n      dup2\n      sload\n      dup2\n      0xff\n      mul\n      not\n      and\n      swap1\n      dup4\n      iszero\n      iszero\n      mul\n      or\n      swap1\n      sstore\n      pop\n        /* \"contracts/SmartContractWallet.sol\":703:892  function setGuardian(address _guardian, bool _isGuardian) public {... */\n      pop\n      pop\n      jump\t// out\n        /* \"contracts/SmartContractWallet.sol\":1441:1747  function setAllowance(address _for, uint _amount) public {... */\n    tag_36:\n        /* \"contracts/SmartContractWallet.sol\":1530:1535  owner */\n      0x00\n      dup1\n      sload\n      swap1\n      0x0100\n      exp\n      swap1\n      div\n      0xffffffffffffffffffffffffffffffffffffffff\n      and\n        /* \"contracts/SmartContractWallet.sol\":1516:1535  msg.sender == owner */\n      0xffffffffffffffffffffffffffffffffffffffff\n      and\n        /* \"contracts/SmartContractWallet.sol\":1516:1526  msg.sender */\n      caller\n        /* \"contracts/SmartContractWallet.sol\":1516:1535  msg.sender == owner */\n      0xffffffffffffffffffffffffffffffffffffffff\n      and\n      eq\n        /* \"contracts/SmartContractWallet.sol\":1508:1571  require(msg.sender == owner, \"You are not the owner, aborting\") */\n      tag_69\n      jumpi\n      mload(0x40)\n      0x08c379a000000000000000000000000000000000000000000000000000000000\n      dup2\n      mstore\n      0x04\n      add\n      tag_70\n      swap1\n      tag_67\n      jump\t// in\n    tag_70:\n      mload(0x40)\n      dup1\n      swap2\n      sub\n      swap1\n      revert\n    tag_69:\n        /* \"contracts/SmartContractWallet.sol\":1599:1606  _amount */\n      dup1\n        /* \"contracts/SmartContractWallet.sol\":1581:1590  allowance */\n      0x01\n        /* \"contracts/SmartContractWallet.sol\":1581:1596  allowance[_for] */\n      0x00\n        /* \"contracts/SmartContractWallet.sol\":1591:1595  _for */\n      dup5\n        /* \"contracts/SmartContractWallet.sol\":1581:1596  allowance[_for] */\n      0xffffffffffffffffffffffffffffffffffffffff\n      and\n      0xffffffffffffffffffffffffffffffffffffffff\n      and\n      dup2\n      mstore\n      0x20\n      add\n      swap1\n      dup2\n      mstore\n      0x20\n      add\n      0x00\n      keccak256\n        /* \"contracts/SmartContractWallet.sol\":1581:1606  allowance[_for] = _amount */\n      dup2\n      swap1\n      sstore\n      pop\n        /* \"contracts/SmartContractWallet.sol\":1627:1628  0 */\n      0x00\n        /* \"contracts/SmartContractWallet.sol\":1619:1626  _amount */\n      dup2\n        /* \"contracts/SmartContractWallet.sol\":1619:1628  _amount>0 */\n      gt\n        /* \"contracts/SmartContractWallet.sol\":1616:1741  if(_amount>0){... */\n      iszero\n      tag_71\n      jumpi\n        /* \"contracts/SmartContractWallet.sol\":1667:1671  true */\n      0x01\n        /* \"contracts/SmartContractWallet.sol\":1643:1658  isAllowedToSend */\n      0x02\n        /* \"contracts/SmartContractWallet.sol\":1643:1664  isAllowedToSend[_for] */\n      0x00\n        /* \"contracts/SmartContractWallet.sol\":1659:1663  _for */\n      dup5\n        /* \"contracts/SmartContractWallet.sol\":1643:1664  isAllowedToSend[_for] */\n      0xffffffffffffffffffffffffffffffffffffffff\n      and\n      0xffffffffffffffffffffffffffffffffffffffff\n      and\n      dup2\n      mstore\n      0x20\n      add\n      swap1\n      dup2\n      mstore\n      0x20\n      add\n      0x00\n      keccak256\n      0x00\n        /* \"contracts/SmartContractWallet.sol\":1643:1671  isAllowedToSend[_for] = true */\n      0x0100\n      exp\n      dup2\n      sload\n      dup2\n      0xff\n      mul\n      not\n      and\n      swap1\n      dup4\n      iszero\n      iszero\n      mul\n      or\n      swap1\n      sstore\n      pop\n        /* \"contracts/SmartContractWallet.sol\":1616:1741  if(_amount>0){... */\n      jump(tag_72)\n    tag_71:\n        /* \"contracts/SmartContractWallet.sol\":1725:1730  false */\n      0x00\n        /* \"contracts/SmartContractWallet.sol\":1701:1716  isAllowedToSend */\n      0x02\n        /* \"contracts/SmartContractWallet.sol\":1701:1722  isAllowedToSend[_for] */\n      0x00\n        /* \"contracts/SmartContractWallet.sol\":1717:1721  _for */\n      dup5\n        /* \"contracts/SmartContractWallet.sol\":1701:1722  isAllowedToSend[_for] */\n      0xffffffffffffffffffffffffffffffffffffffff\n      and\n      0xffffffffffffffffffffffffffffffffffffffff\n      and\n      dup2\n      mstore\n      0x20\n      add\n      swap1\n      dup2\n      mstore\n      0x20\n      add\n      0x00\n      keccak256\n      0x00\n        /* \"contracts/SmartContractWallet.sol\":1701:1730  isAllowedToSend[_for] = false */\n      0x0100\n      exp\n      dup2\n      sload\n      dup2\n      0xff\n      mul\n      not\n      and\n      swap1\n      dup4\n      iszero\n      iszero\n      mul\n      or\n      swap1\n      sstore\n      pop\n        /* \"contracts/SmartContractWallet.sol\":1616:1741  if(_amount>0){... */\n    tag_72:\n        /* \"contracts/SmartContractWallet.sol\":1441:1747  function setAllowance(address _for, uint _amount) public {... */\n      pop\n      pop\n      jump\t// out\n        /* \"contracts/SmartContractWallet.sol\":288:329  mapping(address => uint) public allowance */\n    tag_40:\n      mstore(0x20, 0x01)\n      dup1\n      0x00\n      mstore\n      keccak256(0x00, 0x40)\n      0x00\n      swap2\n      pop\n      swap1\n      pop\n      sload\n      dup2\n      jump\t// out\n        /* \"contracts/SmartContractWallet.sol\":574:632  uint public constant confirmationFromGuardiansForReset = 3 */\n    tag_45:\n        /* \"contracts/SmartContractWallet.sol\":631:632  3 */\n      0x03\n        /* \"contracts/SmartContractWallet.sol\":574:632  uint public constant confirmationFromGuardiansForReset = 3 */\n      dup2\n      jump\t// out\n        /* \"contracts/SmartContractWallet.sol\":253:281  address payable public owner */\n    tag_49:\n      0x00\n      dup1\n      sload\n      swap1\n      0x0100\n      exp\n      swap1\n      div\n      0xffffffffffffffffffffffffffffffffffffffff\n      and\n      dup2\n      jump\t// out\n        /* \"contracts/SmartContractWallet.sol\":898:1435  function proposeNewOwner(address payable _newOwner) public {... */\n    tag_56:\n        /* \"contracts/SmartContractWallet.sol\":975:984  guardians */\n      0x03\n        /* \"contracts/SmartContractWallet.sol\":975:996  guardians[msg.sender] */\n      0x00\n        /* \"contracts/SmartContractWallet.sol\":985:995  msg.sender */\n      caller\n        /* \"contracts/SmartContractWallet.sol\":975:996  guardians[msg.sender] */\n      0xffffffffffffffffffffffffffffffffffffffff\n      and\n      0xffffffffffffffffffffffffffffffffffffffff\n      and\n      dup2\n      mstore\n      0x20\n      add\n      swap1\n      dup2\n      mstore\n      0x20\n      add\n      0x00\n      keccak256\n      0x00\n      swap1\n      sload\n      swap1\n      0x0100\n      exp\n      swap1\n      div\n      0xff\n      and\n        /* \"contracts/SmartContractWallet.sol\":967:1032  require(guardians[msg.sender],\"You are not a guardian, go away.\") */\n      tag_74\n      jumpi\n      mload(0x40)\n      0x08c379a000000000000000000000000000000000000000000000000000000000\n      dup2\n      mstore\n      0x04\n      add\n      tag_75\n      swap1\n      tag_76\n      jump\t// in\n    tag_75:\n      mload(0x40)\n      dup1\n      swap2\n      sub\n      swap1\n      revert\n    tag_74:\n        /* \"contracts/SmartContractWallet.sol\":1103:1108  false */\n      0x00\n        /* \"contracts/SmartContractWallet.sol\":1050:1108  nextOwnerGuardingVotedBool[_newOwner][msg.sender] == false */\n      iszero\n      iszero\n        /* \"contracts/SmartContractWallet.sol\":1050:1076  nextOwnerGuardingVotedBool */\n      0x04\n        /* \"contracts/SmartContractWallet.sol\":1050:1087  nextOwnerGuardingVotedBool[_newOwner] */\n      0x00\n        /* \"contracts/SmartContractWallet.sol\":1077:1086  _newOwner */\n      dup4\n        /* \"contracts/SmartContractWallet.sol\":1050:1087  nextOwnerGuardingVotedBool[_newOwner] */\n      0xffffffffffffffffffffffffffffffffffffffff\n      and\n      0xffffffffffffffffffffffffffffffffffffffff\n      and\n      dup2\n      mstore\n      0x20\n      add\n      swap1\n      dup2\n      mstore\n      0x20\n      add\n      0x00\n      keccak256\n        /* \"contracts/SmartContractWallet.sol\":1050:1099  nextOwnerGuardingVotedBool[_newOwner][msg.sender] */\n      0x00\n        /* \"contracts/SmartContractWallet.sol\":1088:1098  msg.sender */\n      caller\n        /* \"contracts/SmartContractWallet.sol\":1050:1099  nextOwnerGuardingVotedBool[_newOwner][msg.sender] */\n      0xffffffffffffffffffffffffffffffffffffffff\n      and\n      0xffffffffffffffffffffffffffffffffffffffff\n      and\n      dup2\n      mstore\n      0x20\n      add\n      swap1\n      dup2\n      mstore\n      0x20\n      add\n      0x00\n      keccak256\n      0x00\n      swap1\n      sload\n      swap1\n      0x0100\n      exp\n      swap1\n      div\n      0xff\n      and\n        /* \"contracts/SmartContractWallet.sol\":1050:1108  nextOwnerGuardingVotedBool[_newOwner][msg.sender] == false */\n      iszero\n      iszero\n      eq\n        /* \"contracts/SmartContractWallet.sol\":1042:1130  require(nextOwnerGuardingVotedBool[_newOwner][msg.sender] == false, \"You already voted\") */\n      tag_77\n      jumpi\n      mload(0x40)\n      0x08c379a000000000000000000000000000000000000000000000000000000000\n      dup2\n      mstore\n      0x04\n      add\n      tag_78\n      swap1\n      tag_79\n      jump\t// in\n    tag_78:\n      mload(0x40)\n      dup1\n      swap2\n      sub\n      swap1\n      revert\n    tag_77:\n        /* \"contracts/SmartContractWallet.sol\":1156:1165  nextOwner */\n      0x05\n      0x00\n      swap1\n      sload\n      swap1\n      0x0100\n      exp\n      swap1\n      div\n      0xffffffffffffffffffffffffffffffffffffffff\n      and\n        /* \"contracts/SmartContractWallet.sol\":1143:1165  _newOwner != nextOwner */\n      0xffffffffffffffffffffffffffffffffffffffff\n      and\n        /* \"contracts/SmartContractWallet.sol\":1143:1152  _newOwner */\n      dup2\n        /* \"contracts/SmartContractWallet.sol\":1143:1165  _newOwner != nextOwner */\n      0xffffffffffffffffffffffffffffffffffffffff\n      and\n      eq\n        /* \"contracts/SmartContractWallet.sol\":1140:1250  if(_newOwner != nextOwner) {... */\n      tag_80\n      jumpi\n        /* \"contracts/SmartContractWallet.sol\":1193:1202  _newOwner */\n      dup1\n        /* \"contracts/SmartContractWallet.sol\":1181:1190  nextOwner */\n      0x05\n      0x00\n        /* \"contracts/SmartContractWallet.sol\":1181:1202  nextOwner = _newOwner */\n      0x0100\n      exp\n      dup2\n      sload\n      dup2\n      0xffffffffffffffffffffffffffffffffffffffff\n      mul\n      not\n      and\n      swap1\n      dup4\n      0xffffffffffffffffffffffffffffffffffffffff\n      and\n      mul\n      or\n      swap1\n      sstore\n      pop\n        /* \"contracts/SmartContractWallet.sol\":1238:1239  0 */\n      0x00\n        /* \"contracts/SmartContractWallet.sol\":1216:1235  guardiansResetCount */\n      0x06\n        /* \"contracts/SmartContractWallet.sol\":1216:1239  guardiansResetCount = 0 */\n      dup2\n      swap1\n      sstore\n      pop\n        /* \"contracts/SmartContractWallet.sol\":1140:1250  if(_newOwner != nextOwner) {... */\n    tag_80:\n        /* \"contracts/SmartContractWallet.sol\":1260:1279  guardiansResetCount */\n      0x06\n      0x00\n        /* \"contracts/SmartContractWallet.sol\":1260:1281  guardiansResetCount++ */\n      dup2\n      sload\n      dup1\n      swap3\n      swap2\n      swap1\n      tag_81\n      swap1\n      tag_82\n      jump\t// in\n    tag_81:\n      swap2\n      swap1\n      pop\n      sstore\n      pop\n        /* \"contracts/SmartContractWallet.sol\":631:632  3 */\n      0x03\n        /* \"contracts/SmartContractWallet.sol\":1294:1313  guardiansResetCount */\n      sload(0x06)\n        /* \"contracts/SmartContractWallet.sol\":1294:1350  guardiansResetCount >= confirmationFromGuardiansForReset */\n      lt\n        /* \"contracts/SmartContractWallet.sol\":1291:1429  if(guardiansResetCount >= confirmationFromGuardiansForReset) {... */\n      tag_83\n      jumpi\n        /* \"contracts/SmartContractWallet.sol\":1374:1383  nextOwner */\n      0x05\n      0x00\n      swap1\n      sload\n      swap1\n      0x0100\n      exp\n      swap1\n      div\n      0xffffffffffffffffffffffffffffffffffffffff\n      and\n        /* \"contracts/SmartContractWallet.sol\":1366:1371  owner */\n      0x00\n      dup1\n        /* \"contracts/SmartContractWallet.sol\":1366:1383  owner = nextOwner */\n      0x0100\n      exp\n      dup2\n      sload\n      dup2\n      0xffffffffffffffffffffffffffffffffffffffff\n      mul\n      not\n      and\n      swap1\n      dup4\n      0xffffffffffffffffffffffffffffffffffffffff\n      and\n      mul\n      or\n      swap1\n      sstore\n      pop\n        /* \"contracts/SmartContractWallet.sol\":1397:1416  guardiansResetCount */\n      0x06\n      0x00\n        /* \"contracts/SmartContractWallet.sol\":1397:1418  guardiansResetCount++ */\n      dup2\n      sload\n      dup1\n      swap3\n      swap2\n      swap1\n      tag_84\n      swap1\n      tag_82\n      jump\t// in\n    tag_84:\n      swap2\n      swap1\n      pop\n      sstore\n      pop\n        /* \"contracts/SmartContractWallet.sol\":1291:1429  if(guardiansResetCount >= confirmationFromGuardiansForReset) {... */\n    tag_83:\n        /* \"contracts/SmartContractWallet.sol\":898:1435  function proposeNewOwner(address payable _newOwner) public {... */\n      pop\n      jump\t// out\n        /* \"contracts/SmartContractWallet.sol\":1753:2462  function transfer(address payable _to, uint _amount, bytes memory _payload) public returns(bytes memory) {... */\n    tag_61:\n        /* \"contracts/SmartContractWallet.sol\":1844:1856  bytes memory */\n      0x60\n        /* \"contracts/SmartContractWallet.sol\":1961:1966  owner */\n      0x00\n      dup1\n      sload\n      swap1\n      0x0100\n      exp\n      swap1\n      div\n      0xffffffffffffffffffffffffffffffffffffffff\n      and\n        /* \"contracts/SmartContractWallet.sol\":1947:1966  msg.sender != owner */\n      0xffffffffffffffffffffffffffffffffffffffff\n      and\n        /* \"contracts/SmartContractWallet.sol\":1947:1957  msg.sender */\n      caller\n        /* \"contracts/SmartContractWallet.sol\":1947:1966  msg.sender != owner */\n      0xffffffffffffffffffffffffffffffffffffffff\n      and\n      eq\n        /* \"contracts/SmartContractWallet.sol\":1944:2276  if(msg.sender != owner) {... */\n      tag_86\n      jumpi\n        /* \"contracts/SmartContractWallet.sol\":1990:2005  isAllowedToSend */\n      0x02\n        /* \"contracts/SmartContractWallet.sol\":1990:2017  isAllowedToSend[msg.sender] */\n      0x00\n        /* \"contracts/SmartContractWallet.sol\":2006:2016  msg.sender */\n      caller\n        /* \"contracts/SmartContractWallet.sol\":1990:2017  isAllowedToSend[msg.sender] */\n      0xffffffffffffffffffffffffffffffffffffffff\n      and\n      0xffffffffffffffffffffffffffffffffffffffff\n      and\n      dup2\n      mstore\n      0x20\n      add\n      swap1\n      dup2\n      mstore\n      0x20\n      add\n      0x00\n      keccak256\n      0x00\n      swap1\n      sload\n      swap1\n      0x0100\n      exp\n      swap1\n      div\n      0xff\n      and\n        /* \"contracts/SmartContractWallet.sol\":1982:2093  require(isAllowedToSend[msg.sender], \"You are not allowed to send anything from this smart contract, aborting\") */\n      tag_87\n      jumpi\n      mload(0x40)\n      0x08c379a000000000000000000000000000000000000000000000000000000000\n      dup2\n      mstore\n      0x04\n      add\n      tag_88\n      swap1\n      tag_89\n      jump\t// in\n    tag_88:\n      mload(0x40)\n      dup1\n      swap2\n      sub\n      swap1\n      revert\n    tag_87:\n        /* \"contracts/SmartContractWallet.sol\":2140:2147  _amount */\n      dup3\n        /* \"contracts/SmartContractWallet.sol\":2115:2124  allowance */\n      0x01\n        /* \"contracts/SmartContractWallet.sol\":2115:2136  allowance[msg.sender] */\n      0x00\n        /* \"contracts/SmartContractWallet.sol\":2125:2135  msg.sender */\n      caller\n        /* \"contracts/SmartContractWallet.sol\":2115:2136  allowance[msg.sender] */\n      0xffffffffffffffffffffffffffffffffffffffff\n      and\n      0xffffffffffffffffffffffffffffffffffffffff\n      and\n      dup2\n      mstore\n      0x20\n      add\n      swap1\n      dup2\n      mstore\n      0x20\n      add\n      0x00\n      keccak256\n      sload\n        /* \"contracts/SmartContractWallet.sol\":2115:2147  allowance[msg.sender] >= _amount */\n      lt\n      iszero\n        /* \"contracts/SmartContractWallet.sol\":2107:2218  require(allowance[msg.sender] >= _amount, \"You are trying to send more than you are allowed to send, aborting\") */\n      tag_90\n      jumpi\n      mload(0x40)\n      0x08c379a000000000000000000000000000000000000000000000000000000000\n      dup2\n      mstore\n      0x04\n      add\n      tag_91\n      swap1\n      tag_92\n      jump\t// in\n    tag_91:\n      mload(0x40)\n      dup1\n      swap2\n      sub\n      swap1\n      revert\n    tag_90:\n        /* \"contracts/SmartContractWallet.sol\":2258:2265  _amount */\n      dup3\n        /* \"contracts/SmartContractWallet.sol\":2233:2242  allowance */\n      0x01\n        /* \"contracts/SmartContractWallet.sol\":2233:2254  allowance[msg.sender] */\n      0x00\n        /* \"contracts/SmartContractWallet.sol\":2243:2253  msg.sender */\n      caller\n        /* \"contracts/SmartContractWallet.sol\":2233:2254  allowance[msg.sender] */\n      0xffffffffffffffffffffffffffffffffffffffff\n      and\n      0xffffffffffffffffffffffffffffffffffffffff\n      and\n      dup2\n      mstore\n      0x20\n      add\n      swap1\n      dup2\n      mstore\n      0x20\n      add\n      0x00\n      keccak256\n      0x00\n        /* \"contracts/SmartContractWallet.sol\":2233:2265  allowance[msg.sender] -= _amount */\n      dup3\n      dup3\n      sload\n      tag_93\n      swap2\n      swap1\n      tag_94\n      jump\t// in\n    tag_93:\n      swap3\n      pop\n      pop\n      dup2\n      swap1\n      sstore\n      pop\n        /* \"contracts/SmartContractWallet.sol\":1944:2276  if(msg.sender != owner) {... */\n    tag_86:\n        /* \"contracts/SmartContractWallet.sol\":2286:2298  bool success */\n      0x00\n        /* \"contracts/SmartContractWallet.sol\":2300:2325  bytes memory returnedData */\n      dup1\n        /* \"contracts/SmartContractWallet.sol\":2328:2331  _to */\n      dup6\n        /* \"contracts/SmartContractWallet.sol\":2328:2336  _to.call */\n      0xffffffffffffffffffffffffffffffffffffffff\n      and\n        /* \"contracts/SmartContractWallet.sol\":2344:2351  _amount */\n      dup6\n        /* \"contracts/SmartContractWallet.sol\":2353:2361  _payload */\n      dup6\n        /* \"contracts/SmartContractWallet.sol\":2328:2362  _to.call{value: _amount}(_payload) */\n      mload(0x40)\n      tag_95\n      swap2\n      swap1\n      tag_96\n      jump\t// in\n    tag_95:\n      0x00\n      mload(0x40)\n      dup1\n      dup4\n      sub\n      dup2\n      dup6\n      dup8\n      gas\n      call\n      swap3\n      pop\n      pop\n      pop\n      returndatasize\n      dup1\n      0x00\n      dup2\n      eq\n      tag_99\n      jumpi\n      mload(0x40)\n      swap2\n      pop\n      and(add(returndatasize, 0x3f), not(0x1f))\n      dup3\n      add\n      0x40\n      mstore\n      returndatasize\n      dup3\n      mstore\n      returndatasize\n      0x00\n      0x20\n      dup5\n      add\n      returndatacopy\n      jump(tag_98)\n    tag_99:\n      0x60\n      swap2\n      pop\n    tag_98:\n      pop\n        /* \"contracts/SmartContractWallet.sol\":2285:2362  (bool success, bytes memory returnedData)= _to.call{value: _amount}(_payload) */\n      swap2\n      pop\n      swap2\n      pop\n        /* \"contracts/SmartContractWallet.sol\":2380:2387  success */\n      dup2\n        /* \"contracts/SmartContractWallet.sol\":2372:2426  require(success, \"Call was not successfule, aborting\") */\n      tag_100\n      jumpi\n      mload(0x40)\n      0x08c379a000000000000000000000000000000000000000000000000000000000\n      dup2\n      mstore\n      0x04\n      add\n      tag_101\n      swap1\n      tag_102\n      jump\t// in\n    tag_101:\n      mload(0x40)\n      dup1\n      swap2\n      sub\n      swap1\n      revert\n    tag_100:\n        /* \"contracts/SmartContractWallet.sol\":2443:2455  returnedData */\n      dup1\n        /* \"contracts/SmartContractWallet.sol\":2436:2455  return returnedData */\n      swap3\n      pop\n      pop\n      pop\n        /* \"contracts/SmartContractWallet.sol\":1753:2462  function transfer(address payable _to, uint _amount, bytes memory _payload) public returns(bytes memory) {... */\n      swap4\n      swap3\n      pop\n      pop\n      pop\n      jump\t// out\n        /* \"#utility.yul\":7:82   */\n    tag_103:\n        /* \"#utility.yul\":40:46   */\n      0x00\n        /* \"#utility.yul\":73:75   */\n      0x40\n        /* \"#utility.yul\":67:76   */\n      mload\n        /* \"#utility.yul\":57:76   */\n      swap1\n      pop\n        /* \"#utility.yul\":7:82   */\n      swap1\n      jump\t// out\n        /* \"#utility.yul\":88:205   */\n    tag_104:\n        /* \"#utility.yul\":197:198   */\n      0x00\n        /* \"#utility.yul\":194:195   */\n      dup1\n        /* \"#utility.yul\":187:199   */\n      revert\n        /* \"#utility.yul\":211:328   */\n    tag_105:\n        /* \"#utility.yul\":320:321   */\n      0x00\n        /* \"#utility.yul\":317:318   */\n      dup1\n        /* \"#utility.yul\":310:322   */\n      revert\n        /* \"#utility.yul\":334:460   */\n    tag_106:\n        /* \"#utility.yul\":371:378   */\n      0x00\n        /* \"#utility.yul\":411:453   */\n      0xffffffffffffffffffffffffffffffffffffffff\n        /* \"#utility.yul\":404:409   */\n      dup3\n        /* \"#utility.yul\":400:454   */\n      and\n        /* \"#utility.yul\":389:454   */\n      swap1\n      pop\n        /* \"#utility.yul\":334:460   */\n      swap2\n      swap1\n      pop\n      jump\t// out\n        /* \"#utility.yul\":466:562   */\n    tag_107:\n        /* \"#utility.yul\":503:510   */\n      0x00\n        /* \"#utility.yul\":532:556   */\n      tag_158\n        /* \"#utility.yul\":550:555   */\n      dup3\n        /* \"#utility.yul\":532:556   */\n      tag_106\n      jump\t// in\n    tag_158:\n        /* \"#utility.yul\":521:556   */\n      swap1\n      pop\n        /* \"#utility.yul\":466:562   */\n      swap2\n      swap1\n      pop\n      jump\t// out\n        /* \"#utility.yul\":568:690   */\n    tag_108:\n        /* \"#utility.yul\":641:665   */\n      tag_160\n        /* \"#utility.yul\":659:664   */\n      dup2\n        /* \"#utility.yul\":641:665   */\n      tag_107\n      jump\t// in\n    tag_160:\n        /* \"#utility.yul\":634:639   */\n      dup2\n        /* \"#utility.yul\":631:666   */\n      eq\n        /* \"#utility.yul\":621:684   */\n      tag_161\n      jumpi\n        /* \"#utility.yul\":680:681   */\n      0x00\n        /* \"#utility.yul\":677:678   */\n      dup1\n        /* \"#utility.yul\":670:682   */\n      revert\n        /* \"#utility.yul\":621:684   */\n    tag_161:\n        /* \"#utility.yul\":568:690   */\n      pop\n      jump\t// out\n        /* \"#utility.yul\":696:835   */\n    tag_109:\n        /* \"#utility.yul\":742:747   */\n      0x00\n        /* \"#utility.yul\":780:786   */\n      dup2\n        /* \"#utility.yul\":767:787   */\n      calldataload\n        /* \"#utility.yul\":758:787   */\n      swap1\n      pop\n        /* \"#utility.yul\":796:829   */\n      tag_163\n        /* \"#utility.yul\":823:828   */\n      dup2\n        /* \"#utility.yul\":796:829   */\n      tag_108\n      jump\t// in\n    tag_163:\n        /* \"#utility.yul\":696:835   */\n      swap3\n      swap2\n      pop\n      pop\n      jump\t// out\n        /* \"#utility.yul\":841:1170   */\n    tag_18:\n        /* \"#utility.yul\":900:906   */\n      0x00\n        /* \"#utility.yul\":949:951   */\n      0x20\n        /* \"#utility.yul\":937:946   */\n      dup3\n        /* \"#utility.yul\":928:935   */\n      dup5\n        /* \"#utility.yul\":924:947   */\n      sub\n        /* \"#utility.yul\":920:952   */\n      slt\n        /* \"#utility.yul\":917:1036   */\n      iszero\n      tag_165\n      jumpi\n        /* \"#utility.yul\":955:1034   */\n      tag_166\n      tag_104\n      jump\t// in\n    tag_166:\n        /* \"#utility.yul\":917:1036   */\n    tag_165:\n        /* \"#utility.yul\":1075:1076   */\n      0x00\n        /* \"#utility.yul\":1100:1153   */\n      tag_167\n        /* \"#utility.yul\":1145:1152   */\n      dup5\n        /* \"#utility.yul\":1136:1142   */\n      dup3\n        /* \"#utility.yul\":1125:1134   */\n      dup6\n        /* \"#utility.yul\":1121:1143   */\n      add\n        /* \"#utility.yul\":1100:1153   */\n      tag_109\n      jump\t// in\n    tag_167:\n        /* \"#utility.yul\":1090:1153   */\n      swap2\n      pop\n        /* \"#utility.yul\":1046:1163   */\n      pop\n        /* \"#utility.yul\":841:1170   */\n      swap3\n      swap2\n      pop\n      pop\n      jump\t// out\n        /* \"#utility.yul\":1176:1266   */\n    tag_110:\n        /* \"#utility.yul\":1210:1217   */\n      0x00\n        /* \"#utility.yul\":1253:1258   */\n      dup2\n        /* \"#utility.yul\":1246:1259   */\n      iszero\n        /* \"#utility.yul\":1239:1260   */\n      iszero\n        /* \"#utility.yul\":1228:1260   */\n      swap1\n      pop\n        /* \"#utility.yul\":1176:1266   */\n      swap2\n      swap1\n      pop\n      jump\t// out\n        /* \"#utility.yul\":1272:1381   */\n    tag_111:\n        /* \"#utility.yul\":1353:1374   */\n      tag_170\n        /* \"#utility.yul\":1368:1373   */\n      dup2\n        /* \"#utility.yul\":1353:1374   */\n      tag_110\n      jump\t// in\n    tag_170:\n        /* \"#utility.yul\":1348:1351   */\n      dup3\n        /* \"#utility.yul\":1341:1375   */\n      mstore\n        /* \"#utility.yul\":1272:1381   */\n      pop\n      pop\n      jump\t// out\n        /* \"#utility.yul\":1387:1597   */\n    tag_21:\n        /* \"#utility.yul\":1474:1478   */\n      0x00\n        /* \"#utility.yul\":1512:1514   */\n      0x20\n        /* \"#utility.yul\":1501:1510   */\n      dup3\n        /* \"#utility.yul\":1497:1515   */\n      add\n        /* \"#utility.yul\":1489:1515   */\n      swap1\n      pop\n        /* \"#utility.yul\":1525:1590   */\n      tag_172\n        /* \"#utility.yul\":1587:1588   */\n      0x00\n        /* \"#utility.yul\":1576:1585   */\n      dup4\n        /* \"#utility.yul\":1572:1589   */\n      add\n        /* \"#utility.yul\":1563:1569   */\n      dup5\n        /* \"#utility.yul\":1525:1590   */\n      tag_111\n      jump\t// in\n    tag_172:\n        /* \"#utility.yul\":1387:1597   */\n      swap3\n      swap2\n      pop\n      pop\n      jump\t// out\n        /* \"#utility.yul\":1603:1719   */\n    tag_112:\n        /* \"#utility.yul\":1673:1694   */\n      tag_174\n        /* \"#utility.yul\":1688:1693   */\n      dup2\n        /* \"#utility.yul\":1673:1694   */\n      tag_110\n      jump\t// in\n    tag_174:\n        /* \"#utility.yul\":1666:1671   */\n      dup2\n        /* \"#utility.yul\":1663:1695   */\n      eq\n        /* \"#utility.yul\":1653:1713   */\n      tag_175\n      jumpi\n        /* \"#utility.yul\":1709:1710   */\n      0x00\n        /* \"#utility.yul\":1706:1707   */\n      dup1\n        /* \"#utility.yul\":1699:1711   */\n      revert\n        /* \"#utility.yul\":1653:1713   */\n    tag_175:\n        /* \"#utility.yul\":1603:1719   */\n      pop\n      jump\t// out\n        /* \"#utility.yul\":1725:1858   */\n    tag_113:\n        /* \"#utility.yul\":1768:1773   */\n      0x00\n        /* \"#utility.yul\":1806:1812   */\n      dup2\n        /* \"#utility.yul\":1793:1813   */\n      calldataload\n        /* \"#utility.yul\":1784:1813   */\n      swap1\n      pop\n        /* \"#utility.yul\":1822:1852   */\n      tag_177\n        /* \"#utility.yul\":1846:1851   */\n      dup2\n        /* \"#utility.yul\":1822:1852   */\n      tag_112\n      jump\t// in\n    tag_177:\n        /* \"#utility.yul\":1725:1858   */\n      swap3\n      swap2\n      pop\n      pop\n      jump\t// out\n        /* \"#utility.yul\":1864:2332   */\n    tag_30:\n        /* \"#utility.yul\":1929:1935   */\n      0x00\n        /* \"#utility.yul\":1937:1943   */\n      dup1\n        /* \"#utility.yul\":1986:1988   */\n      0x40\n        /* \"#utility.yul\":1974:1983   */\n      dup4\n        /* \"#utility.yul\":1965:1972   */\n      dup6\n        /* \"#utility.yul\":1961:1984   */\n      sub\n        /* \"#utility.yul\":1957:1989   */\n      slt\n        /* \"#utility.yul\":1954:2073   */\n      iszero\n      tag_179\n      jumpi\n        /* \"#utility.yul\":1992:2071   */\n      tag_180\n      tag_104\n      jump\t// in\n    tag_180:\n        /* \"#utility.yul\":1954:2073   */\n    tag_179:\n        /* \"#utility.yul\":2112:2113   */\n      0x00\n        /* \"#utility.yul\":2137:2190   */\n      tag_181\n        /* \"#utility.yul\":2182:2189   */\n      dup6\n        /* \"#utility.yul\":2173:2179   */\n      dup3\n        /* \"#utility.yul\":2162:2171   */\n      dup7\n        /* \"#utility.yul\":2158:2180   */\n      add\n        /* \"#utility.yul\":2137:2190   */\n      tag_109\n      jump\t// in\n    tag_181:\n        /* \"#utility.yul\":2127:2190   */\n      swap3\n      pop\n        /* \"#utility.yul\":2083:2200   */\n      pop\n        /* \"#utility.yul\":2239:2241   */\n      0x20\n        /* \"#utility.yul\":2265:2315   */\n      tag_182\n        /* \"#utility.yul\":2307:2314   */\n      dup6\n        /* \"#utility.yul\":2298:2304   */\n      dup3\n        /* \"#utility.yul\":2287:2296   */\n      dup7\n        /* \"#utility.yul\":2283:2305   */\n      add\n        /* \"#utility.yul\":2265:2315   */\n      tag_113\n      jump\t// in\n    tag_182:\n        /* \"#utility.yul\":2255:2315   */\n      swap2\n      pop\n        /* \"#utility.yul\":2210:2325   */\n      pop\n        /* \"#utility.yul\":1864:2332   */\n      swap3\n      pop\n      swap3\n      swap1\n      pop\n      jump\t// out\n        /* \"#utility.yul\":2338:2415   */\n    tag_114:\n        /* \"#utility.yul\":2375:2382   */\n      0x00\n        /* \"#utility.yul\":2404:2409   */\n      dup2\n        /* \"#utility.yul\":2393:2409   */\n      swap1\n      pop\n        /* \"#utility.yul\":2338:2415   */\n      swap2\n      swap1\n      pop\n      jump\t// out\n        /* \"#utility.yul\":2421:2543   */\n    tag_115:\n        /* \"#utility.yul\":2494:2518   */\n      tag_185\n        /* \"#utility.yul\":2512:2517   */\n      dup2\n        /* \"#utility.yul\":2494:2518   */\n      tag_114\n      jump\t// in\n    tag_185:\n        /* \"#utility.yul\":2487:2492   */\n      dup2\n        /* \"#utility.yul\":2484:2519   */\n      eq\n        /* \"#utility.yul\":2474:2537   */\n      tag_186\n      jumpi\n        /* \"#utility.yul\":2533:2534   */\n      0x00\n        /* \"#utility.yul\":2530:2531   */\n      dup1\n        /* \"#utility.yul\":2523:2535   */\n      revert\n        /* \"#utility.yul\":2474:2537   */\n    tag_186:\n        /* \"#utility.yul\":2421:2543   */\n      pop\n      jump\t// out\n        /* \"#utility.yul\":2549:2688   */\n    tag_116:\n        /* \"#utility.yul\":2595:2600   */\n      0x00\n        /* \"#utility.yul\":2633:2639   */\n      dup2\n        /* \"#utility.yul\":2620:2640   */\n      calldataload\n        /* \"#utility.yul\":2611:2640   */\n      swap1\n      pop\n        /* \"#utility.yul\":2649:2682   */\n      tag_188\n        /* \"#utility.yul\":2676:2681   */\n      dup2\n        /* \"#utility.yul\":2649:2682   */\n      tag_115\n      jump\t// in\n    tag_188:\n        /* \"#utility.yul\":2549:2688   */\n      swap3\n      swap2\n      pop\n      pop\n      jump\t// out\n        /* \"#utility.yul\":2694:3168   */\n    tag_35:\n        /* \"#utility.yul\":2762:2768   */\n      0x00\n        /* \"#utility.yul\":2770:2776   */\n      dup1\n        /* \"#utility.yul\":2819:2821   */\n      0x40\n        /* \"#utility.yul\":2807:2816   */\n      dup4\n        /* \"#utility.yul\":2798:2805   */\n      dup6\n        /* \"#utility.yul\":2794:2817   */\n      sub\n        /* \"#utility.yul\":2790:2822   */\n      slt\n        /* \"#utility.yul\":2787:2906   */\n      iszero\n      tag_190\n      jumpi\n        /* \"#utility.yul\":2825:2904   */\n      tag_191\n      tag_104\n      jump\t// in\n    tag_191:\n        /* \"#utility.yul\":2787:2906   */\n    tag_190:\n        /* \"#utility.yul\":2945:2946   */\n      0x00\n        /* \"#utility.yul\":2970:3023   */\n      tag_192\n        /* \"#utility.yul\":3015:3022   */\n      dup6\n        /* \"#utility.yul\":3006:3012   */\n      dup3\n        /* \"#utility.yul\":2995:3004   */\n      dup7\n        /* \"#utility.yul\":2991:3013   */\n      add\n        /* \"#utility.yul\":2970:3023   */\n      tag_109\n      jump\t// in\n    tag_192:\n        /* \"#utility.yul\":2960:3023   */\n      swap3\n      pop\n        /* \"#utility.yul\":2916:3033   */\n      pop\n        /* \"#utility.yul\":3072:3074   */\n      0x20\n        /* \"#utility.yul\":3098:3151   */\n      tag_193\n        /* \"#utility.yul\":3143:3150   */\n      dup6\n        /* \"#utility.yul\":3134:3140   */\n      dup3\n        /* \"#utility.yul\":3123:3132   */\n      dup7\n        /* \"#utility.yul\":3119:3141   */\n      add\n        /* \"#utility.yul\":3098:3151   */\n      tag_116\n      jump\t// in\n    tag_193:\n        /* \"#utility.yul\":3088:3151   */\n      swap2\n      pop\n        /* \"#utility.yul\":3043:3161   */\n      pop\n        /* \"#utility.yul\":2694:3168   */\n      swap3\n      pop\n      swap3\n      swap1\n      pop\n      jump\t// out\n        /* \"#utility.yul\":3174:3292   */\n    tag_117:\n        /* \"#utility.yul\":3261:3285   */\n      tag_195\n        /* \"#utility.yul\":3279:3284   */\n      dup2\n        /* \"#utility.yul\":3261:3285   */\n      tag_114\n      jump\t// in\n    tag_195:\n        /* \"#utility.yul\":3256:3259   */\n      dup3\n        /* \"#utility.yul\":3249:3286   */\n      mstore\n        /* \"#utility.yul\":3174:3292   */\n      pop\n      pop\n      jump\t// out\n        /* \"#utility.yul\":3298:3520   */\n    tag_42:\n        /* \"#utility.yul\":3391:3395   */\n      0x00\n        /* \"#utility.yul\":3429:3431   */\n      0x20\n        /* \"#utility.yul\":3418:3427   */\n      dup3\n        /* \"#utility.yul\":3414:3432   */\n      add\n        /* \"#utility.yul\":3406:3432   */\n      swap1\n      pop\n        /* \"#utility.yul\":3442:3513   */\n      tag_197\n        /* \"#utility.yul\":3510:3511   */\n      0x00\n        /* \"#utility.yul\":3499:3508   */\n      dup4\n        /* \"#utility.yul\":3495:3512   */\n      add\n        /* \"#utility.yul\":3486:3492   */\n      dup5\n        /* \"#utility.yul\":3442:3513   */\n      tag_117\n      jump\t// in\n    tag_197:\n        /* \"#utility.yul\":3298:3520   */\n      swap3\n      swap2\n      pop\n      pop\n      jump\t// out\n        /* \"#utility.yul\":3526:3630   */\n    tag_118:\n        /* \"#utility.yul\":3571:3578   */\n      0x00\n        /* \"#utility.yul\":3600:3624   */\n      tag_199\n        /* \"#utility.yul\":3618:3623   */\n      dup3\n        /* \"#utility.yul\":3600:3624   */\n      tag_106\n      jump\t// in\n    tag_199:\n        /* \"#utility.yul\":3589:3624   */\n      swap1\n      pop\n        /* \"#utility.yul\":3526:3630   */\n      swap2\n      swap1\n      pop\n      jump\t// out\n        /* \"#utility.yul\":3636:3778   */\n    tag_119:\n        /* \"#utility.yul\":3739:3771   */\n      tag_201\n        /* \"#utility.yul\":3765:3770   */\n      dup2\n        /* \"#utility.yul\":3739:3771   */\n      tag_118\n      jump\t// in\n    tag_201:\n        /* \"#utility.yul\":3734:3737   */\n      dup3\n        /* \"#utility.yul\":3727:3772   */\n      mstore\n        /* \"#utility.yul\":3636:3778   */\n      pop\n      pop\n      jump\t// out\n        /* \"#utility.yul\":3784:4038   */\n    tag_51:\n        /* \"#utility.yul\":3893:3897   */\n      0x00\n        /* \"#utility.yul\":3931:3933   */\n      0x20\n        /* \"#utility.yul\":3920:3929   */\n      dup3\n        /* \"#utility.yul\":3916:3934   */\n      add\n        /* \"#utility.yul\":3908:3934   */\n      swap1\n      pop\n        /* \"#utility.yul\":3944:4031   */\n      tag_203\n        /* \"#utility.yul\":4028:4029   */\n      0x00\n        /* \"#utility.yul\":4017:4026   */\n      dup4\n        /* \"#utility.yul\":4013:4030   */\n      add\n        /* \"#utility.yul\":4004:4010   */\n      dup5\n        /* \"#utility.yul\":3944:4031   */\n      tag_119\n      jump\t// in\n    tag_203:\n        /* \"#utility.yul\":3784:4038   */\n      swap3\n      swap2\n      pop\n      pop\n      jump\t// out\n        /* \"#utility.yul\":4044:4182   */\n    tag_120:\n        /* \"#utility.yul\":4125:4157   */\n      tag_205\n        /* \"#utility.yul\":4151:4156   */\n      dup2\n        /* \"#utility.yul\":4125:4157   */\n      tag_118\n      jump\t// in\n    tag_205:\n        /* \"#utility.yul\":4118:4123   */\n      dup2\n        /* \"#utility.yul\":4115:4158   */\n      eq\n        /* \"#utility.yul\":4105:4176   */\n      tag_206\n      jumpi\n        /* \"#utility.yul\":4172:4173   */\n      0x00\n        /* \"#utility.yul\":4169:4170   */\n      dup1\n        /* \"#utility.yul\":4162:4174   */\n      revert\n        /* \"#utility.yul\":4105:4176   */\n    tag_206:\n        /* \"#utility.yul\":4044:4182   */\n      pop\n      jump\t// out\n        /* \"#utility.yul\":4188:4343   */\n    tag_121:\n        /* \"#utility.yul\":4242:4247   */\n      0x00\n        /* \"#utility.yul\":4280:4286   */\n      dup2\n        /* \"#utility.yul\":4267:4287   */\n      calldataload\n        /* \"#utility.yul\":4258:4287   */\n      swap1\n      pop\n        /* \"#utility.yul\":4296:4337   */\n      tag_208\n        /* \"#utility.yul\":4331:4336   */\n      dup2\n        /* \"#utility.yul\":4296:4337   */\n      tag_120\n      jump\t// in\n    tag_208:\n        /* \"#utility.yul\":4188:4343   */\n      swap3\n      swap2\n      pop\n      pop\n      jump\t// out\n        /* \"#utility.yul\":4349:4694   */\n    tag_55:\n        /* \"#utility.yul\":4416:4422   */\n      0x00\n        /* \"#utility.yul\":4465:4467   */\n      0x20\n        /* \"#utility.yul\":4453:4462   */\n      dup3\n        /* \"#utility.yul\":4444:4451   */\n      dup5\n        /* \"#utility.yul\":4440:4463   */\n      sub\n        /* \"#utility.yul\":4436:4468   */\n      slt\n        /* \"#utility.yul\":4433:4552   */\n      iszero\n      tag_210\n      jumpi\n        /* \"#utility.yul\":4471:4550   */\n      tag_211\n      tag_104\n      jump\t// in\n    tag_211:\n        /* \"#utility.yul\":4433:4552   */\n    tag_210:\n        /* \"#utility.yul\":4591:4592   */\n      0x00\n        /* \"#utility.yul\":4616:4677   */\n      tag_212\n        /* \"#utility.yul\":4669:4676   */\n      dup5\n        /* \"#utility.yul\":4660:4666   */\n      dup3\n        /* \"#utility.yul\":4649:4658   */\n      dup6\n        /* \"#utility.yul\":4645:4667   */\n      add\n        /* \"#utility.yul\":4616:4677   */\n      tag_121\n      jump\t// in\n    tag_212:\n        /* \"#utility.yul\":4606:4677   */\n      swap2\n      pop\n        /* \"#utility.yul\":4562:4687   */\n      pop\n        /* \"#utility.yul\":4349:4694   */\n      swap3\n      swap2\n      pop\n      pop\n      jump\t// out\n        /* \"#utility.yul\":4700:4817   */\n    tag_122:\n        /* \"#utility.yul\":4809:4810   */\n      0x00\n        /* \"#utility.yul\":4806:4807   */\n      dup1\n        /* \"#utility.yul\":4799:4811   */\n      revert\n        /* \"#utility.yul\":4823:4940   */\n    tag_123:\n        /* \"#utility.yul\":4932:4933   */\n      0x00\n        /* \"#utility.yul\":4929:4930   */\n      dup1\n        /* \"#utility.yul\":4922:4934   */\n      revert\n        /* \"#utility.yul\":4946:5048   */\n    tag_124:\n        /* \"#utility.yul\":4987:4993   */\n      0x00\n        /* \"#utility.yul\":5038:5040   */\n      0x1f\n        /* \"#utility.yul\":5034:5041   */\n      not\n        /* \"#utility.yul\":5029:5031   */\n      0x1f\n        /* \"#utility.yul\":5022:5027   */\n      dup4\n        /* \"#utility.yul\":5018:5032   */\n      add\n        /* \"#utility.yul\":5014:5042   */\n      and\n        /* \"#utility.yul\":5004:5042   */\n      swap1\n      pop\n        /* \"#utility.yul\":4946:5048   */\n      swap2\n      swap1\n      pop\n      jump\t// out\n        /* \"#utility.yul\":5054:5234   */\n    tag_125:\n        /* \"#utility.yul\":5102:5179   */\n      0x4e487b7100000000000000000000000000000000000000000000000000000000\n        /* \"#utility.yul\":5099:5100   */\n      0x00\n        /* \"#utility.yul\":5092:5180   */\n      mstore\n        /* \"#utility.yul\":5199:5203   */\n      0x41\n        /* \"#utility.yul\":5196:5197   */\n      0x04\n        /* \"#utility.yul\":5189:5204   */\n      mstore\n        /* \"#utility.yul\":5223:5227   */\n      0x24\n        /* \"#utility.yul\":5220:5221   */\n      0x00\n        /* \"#utility.yul\":5213:5228   */\n      revert\n        /* \"#utility.yul\":5240:5521   */\n    tag_126:\n        /* \"#utility.yul\":5323:5350   */\n      tag_218\n        /* \"#utility.yul\":5345:5349   */\n      dup3\n        /* \"#utility.yul\":5323:5350   */\n      tag_124\n      jump\t// in\n    tag_218:\n        /* \"#utility.yul\":5315:5321   */\n      dup2\n        /* \"#utility.yul\":5311:5351   */\n      add\n        /* \"#utility.yul\":5453:5459   */\n      dup2\n        /* \"#utility.yul\":5441:5451   */\n      dup2\n        /* \"#utility.yul\":5438:5460   */\n      lt\n        /* \"#utility.yul\":5417:5435   */\n      0xffffffffffffffff\n        /* \"#utility.yul\":5405:5415   */\n      dup3\n        /* \"#utility.yul\":5402:5436   */\n      gt\n        /* \"#utility.yul\":5399:5461   */\n      or\n        /* \"#utility.yul\":5396:5484   */\n      iszero\n      tag_219\n      jumpi\n        /* \"#utility.yul\":5464:5482   */\n      tag_220\n      tag_125\n      jump\t// in\n    tag_220:\n        /* \"#utility.yul\":5396:5484   */\n    tag_219:\n        /* \"#utility.yul\":5504:5514   */\n      dup1\n        /* \"#utility.yul\":5500:5502   */\n      0x40\n        /* \"#utility.yul\":5493:5515   */\n      mstore\n        /* \"#utility.yul\":5283:5521   */\n      pop\n        /* \"#utility.yul\":5240:5521   */\n      pop\n      pop\n      jump\t// out\n        /* \"#utility.yul\":5527:5656   */\n    tag_127:\n        /* \"#utility.yul\":5561:5567   */\n      0x00\n        /* \"#utility.yul\":5588:5608   */\n      tag_222\n      tag_103\n      jump\t// in\n    tag_222:\n        /* \"#utility.yul\":5578:5608   */\n      swap1\n      pop\n        /* \"#utility.yul\":5617:5650   */\n      tag_223\n        /* \"#utility.yul\":5645:5649   */\n      dup3\n        /* \"#utility.yul\":5637:5643   */\n      dup3\n        /* \"#utility.yul\":5617:5650   */\n      tag_126\n      jump\t// in\n    tag_223:\n        /* \"#utility.yul\":5527:5656   */\n      swap2\n      swap1\n      pop\n      jump\t// out\n        /* \"#utility.yul\":5662:5969   */\n    tag_128:\n        /* \"#utility.yul\":5723:5727   */\n      0x00\n        /* \"#utility.yul\":5813:5831   */\n      0xffffffffffffffff\n        /* \"#utility.yul\":5805:5811   */\n      dup3\n        /* \"#utility.yul\":5802:5832   */\n      gt\n        /* \"#utility.yul\":5799:5855   */\n      iszero\n      tag_225\n      jumpi\n        /* \"#utility.yul\":5835:5853   */\n      tag_226\n      tag_125\n      jump\t// in\n    tag_226:\n        /* \"#utility.yul\":5799:5855   */\n    tag_225:\n        /* \"#utility.yul\":5873:5902   */\n      tag_227\n        /* \"#utility.yul\":5895:5901   */\n      dup3\n        /* \"#utility.yul\":5873:5902   */\n      tag_124\n      jump\t// in\n    tag_227:\n        /* \"#utility.yul\":5865:5902   */\n      swap1\n      pop\n        /* \"#utility.yul\":5957:5961   */\n      0x20\n        /* \"#utility.yul\":5951:5955   */\n      dup2\n        /* \"#utility.yul\":5947:5962   */\n      add\n        /* \"#utility.yul\":5939:5962   */\n      swap1\n      pop\n        /* \"#utility.yul\":5662:5969   */\n      swap2\n      swap1\n      pop\n      jump\t// out\n        /* \"#utility.yul\":5975:6129   */\n    tag_129:\n        /* \"#utility.yul\":6059:6065   */\n      dup3\n        /* \"#utility.yul\":6054:6057   */\n      dup2\n        /* \"#utility.yul\":6049:6052   */\n      dup4\n        /* \"#utility.yul\":6036:6066   */\n      calldatacopy\n        /* \"#utility.yul\":6121:6122   */\n      0x00\n        /* \"#utility.yul\":6112:6118   */\n      dup4\n        /* \"#utility.yul\":6107:6110   */\n      dup4\n        /* \"#utility.yul\":6103:6119   */\n      add\n        /* \"#utility.yul\":6096:6123   */\n      mstore\n        /* \"#utility.yul\":5975:6129   */\n      pop\n      pop\n      pop\n      jump\t// out\n        /* \"#utility.yul\":6135:6545   */\n    tag_130:\n        /* \"#utility.yul\":6212:6217   */\n      0x00\n        /* \"#utility.yul\":6237:6302   */\n      tag_230\n        /* \"#utility.yul\":6253:6301   */\n      tag_231\n        /* \"#utility.yul\":6294:6300   */\n      dup5\n        /* \"#utility.yul\":6253:6301   */\n      tag_128\n      jump\t// in\n    tag_231:\n        /* \"#utility.yul\":6237:6302   */\n      tag_127\n      jump\t// in\n    tag_230:\n        /* \"#utility.yul\":6228:6302   */\n      swap1\n      pop\n        /* \"#utility.yul\":6325:6331   */\n      dup3\n        /* \"#utility.yul\":6318:6323   */\n      dup2\n        /* \"#utility.yul\":6311:6332   */\n      mstore\n        /* \"#utility.yul\":6363:6367   */\n      0x20\n        /* \"#utility.yul\":6356:6361   */\n      dup2\n        /* \"#utility.yul\":6352:6368   */\n      add\n        /* \"#utility.yul\":6401:6404   */\n      dup5\n        /* \"#utility.yul\":6392:6398   */\n      dup5\n        /* \"#utility.yul\":6387:6390   */\n      dup5\n        /* \"#utility.yul\":6383:6399   */\n      add\n        /* \"#utility.yul\":6380:6405   */\n      gt\n        /* \"#utility.yul\":6377:6489   */\n      iszero\n      tag_232\n      jumpi\n        /* \"#utility.yul\":6408:6487   */\n      tag_233\n      tag_123\n      jump\t// in\n    tag_233:\n        /* \"#utility.yul\":6377:6489   */\n    tag_232:\n        /* \"#utility.yul\":6498:6539   */\n      tag_234\n        /* \"#utility.yul\":6532:6538   */\n      dup5\n        /* \"#utility.yul\":6527:6530   */\n      dup3\n        /* \"#utility.yul\":6522:6525   */\n      dup6\n        /* \"#utility.yul\":6498:6539   */\n      tag_129\n      jump\t// in\n    tag_234:\n        /* \"#utility.yul\":6218:6545   */\n      pop\n        /* \"#utility.yul\":6135:6545   */\n      swap4\n      swap3\n      pop\n      pop\n      pop\n      jump\t// out\n        /* \"#utility.yul\":6564:6902   */\n    tag_131:\n        /* \"#utility.yul\":6619:6624   */\n      0x00\n        /* \"#utility.yul\":6668:6671   */\n      dup3\n        /* \"#utility.yul\":6661:6665   */\n      0x1f\n        /* \"#utility.yul\":6653:6659   */\n      dup4\n        /* \"#utility.yul\":6649:6666   */\n      add\n        /* \"#utility.yul\":6645:6672   */\n      slt\n        /* \"#utility.yul\":6635:6757   */\n      tag_236\n      jumpi\n        /* \"#utility.yul\":6676:6755   */\n      tag_237\n      tag_122\n      jump\t// in\n    tag_237:\n        /* \"#utility.yul\":6635:6757   */\n    tag_236:\n        /* \"#utility.yul\":6793:6799   */\n      dup2\n        /* \"#utility.yul\":6780:6800   */\n      calldataload\n        /* \"#utility.yul\":6818:6896   */\n      tag_238\n        /* \"#utility.yul\":6892:6895   */\n      dup5\n        /* \"#utility.yul\":6884:6890   */\n      dup3\n        /* \"#utility.yul\":6877:6881   */\n      0x20\n        /* \"#utility.yul\":6869:6875   */\n      dup7\n        /* \"#utility.yul\":6865:6882   */\n      add\n        /* \"#utility.yul\":6818:6896   */\n      tag_130\n      jump\t// in\n    tag_238:\n        /* \"#utility.yul\":6809:6896   */\n      swap2\n      pop\n        /* \"#utility.yul\":6625:6902   */\n      pop\n        /* \"#utility.yul\":6564:6902   */\n      swap3\n      swap2\n      pop\n      pop\n      jump\t// out\n        /* \"#utility.yul\":6908:7721   */\n    tag_60:\n        /* \"#utility.yul\":7002:7008   */\n      0x00\n        /* \"#utility.yul\":7010:7016   */\n      dup1\n        /* \"#utility.yul\":7018:7024   */\n      0x00\n        /* \"#utility.yul\":7067:7069   */\n      0x60\n        /* \"#utility.yul\":7055:7064   */\n      dup5\n        /* \"#utility.yul\":7046:7053   */\n      dup7\n        /* \"#utility.yul\":7042:7065   */\n      sub\n        /* \"#utility.yul\":7038:7070   */\n      slt\n        /* \"#utility.yul\":7035:7154   */\n      iszero\n      tag_240\n      jumpi\n        /* \"#utility.yul\":7073:7152   */\n      tag_241\n      tag_104\n      jump\t// in\n    tag_241:\n        /* \"#utility.yul\":7035:7154   */\n    tag_240:\n        /* \"#utility.yul\":7193:7194   */\n      0x00\n        /* \"#utility.yul\":7218:7279   */\n      tag_242\n        /* \"#utility.yul\":7271:7278   */\n      dup7\n        /* \"#utility.yul\":7262:7268   */\n      dup3\n        /* \"#utility.yul\":7251:7260   */\n      dup8\n        /* \"#utility.yul\":7247:7269   */\n      add\n        /* \"#utility.yul\":7218:7279   */\n      tag_121\n      jump\t// in\n    tag_242:\n        /* \"#utility.yul\":7208:7279   */\n      swap4\n      pop\n        /* \"#utility.yul\":7164:7289   */\n      pop\n        /* \"#utility.yul\":7328:7330   */\n      0x20\n        /* \"#utility.yul\":7354:7407   */\n      tag_243\n        /* \"#utility.yul\":7399:7406   */\n      dup7\n        /* \"#utility.yul\":7390:7396   */\n      dup3\n        /* \"#utility.yul\":7379:7388   */\n      dup8\n        /* \"#utility.yul\":7375:7397   */\n      add\n        /* \"#utility.yul\":7354:7407   */\n      tag_116\n      jump\t// in\n    tag_243:\n        /* \"#utility.yul\":7344:7407   */\n      swap3\n      pop\n        /* \"#utility.yul\":7299:7417   */\n      pop\n        /* \"#utility.yul\":7484:7486   */\n      0x40\n        /* \"#utility.yul\":7473:7482   */\n      dup5\n        /* \"#utility.yul\":7469:7487   */\n      add\n        /* \"#utility.yul\":7456:7488   */\n      calldataload\n        /* \"#utility.yul\":7515:7533   */\n      0xffffffffffffffff\n        /* \"#utility.yul\":7507:7513   */\n      dup2\n        /* \"#utility.yul\":7504:7534   */\n      gt\n        /* \"#utility.yul\":7501:7618   */\n      iszero\n      tag_244\n      jumpi\n        /* \"#utility.yul\":7537:7616   */\n      tag_245\n      tag_105\n      jump\t// in\n    tag_245:\n        /* \"#utility.yul\":7501:7618   */\n    tag_244:\n        /* \"#utility.yul\":7642:7704   */\n      tag_246\n        /* \"#utility.yul\":7696:7703   */\n      dup7\n        /* \"#utility.yul\":7687:7693   */\n      dup3\n        /* \"#utility.yul\":7676:7685   */\n      dup8\n        /* \"#utility.yul\":7672:7694   */\n      add\n        /* \"#utility.yul\":7642:7704   */\n      tag_131\n      jump\t// in\n    tag_246:\n        /* \"#utility.yul\":7632:7704   */\n      swap2\n      pop\n        /* \"#utility.yul\":7427:7714   */\n      pop\n        /* \"#utility.yul\":6908:7721   */\n      swap3\n      pop\n      swap3\n      pop\n      swap3\n      jump\t// out\n        /* \"#utility.yul\":7727:7825   */\n    tag_132:\n        /* \"#utility.yul\":7778:7784   */\n      0x00\n        /* \"#utility.yul\":7812:7817   */\n      dup2\n        /* \"#utility.yul\":7806:7818   */\n      mload\n        /* \"#utility.yul\":7796:7818   */\n      swap1\n      pop\n        /* \"#utility.yul\":7727:7825   */\n      swap2\n      swap1\n      pop\n      jump\t// out\n        /* \"#utility.yul\":7831:7999   */\n    tag_133:\n        /* \"#utility.yul\":7914:7925   */\n      0x00\n        /* \"#utility.yul\":7948:7954   */\n      dup3\n        /* \"#utility.yul\":7943:7946   */\n      dup3\n        /* \"#utility.yul\":7936:7955   */\n      mstore\n        /* \"#utility.yul\":7988:7992   */\n      0x20\n        /* \"#utility.yul\":7983:7986   */\n      dup3\n        /* \"#utility.yul\":7979:7993   */\n      add\n        /* \"#utility.yul\":7964:7993   */\n      swap1\n      pop\n        /* \"#utility.yul\":7831:7999   */\n      swap3\n      swap2\n      pop\n      pop\n      jump\t// out\n        /* \"#utility.yul\":8005:8312   */\n    tag_134:\n        /* \"#utility.yul\":8073:8074   */\n      0x00\n        /* \"#utility.yul\":8083:8196   */\n    tag_250:\n        /* \"#utility.yul\":8097:8103   */\n      dup4\n        /* \"#utility.yul\":8094:8095   */\n      dup2\n        /* \"#utility.yul\":8091:8104   */\n      lt\n        /* \"#utility.yul\":8083:8196   */\n      iszero\n      tag_252\n      jumpi\n        /* \"#utility.yul\":8182:8183   */\n      dup1\n        /* \"#utility.yul\":8177:8180   */\n      dup3\n        /* \"#utility.yul\":8173:8184   */\n      add\n        /* \"#utility.yul\":8167:8185   */\n      mload\n        /* \"#utility.yul\":8163:8164   */\n      dup2\n        /* \"#utility.yul\":8158:8161   */\n      dup5\n        /* \"#utility.yul\":8154:8165   */\n      add\n        /* \"#utility.yul\":8147:8186   */\n      mstore\n        /* \"#utility.yul\":8119:8121   */\n      0x20\n        /* \"#utility.yul\":8116:8117   */\n      dup2\n        /* \"#utility.yul\":8112:8122   */\n      add\n        /* \"#utility.yul\":8107:8122   */\n      swap1\n      pop\n        /* \"#utility.yul\":8083:8196   */\n      jump(tag_250)\n    tag_252:\n        /* \"#utility.yul\":8214:8220   */\n      dup4\n        /* \"#utility.yul\":8211:8212   */\n      dup2\n        /* \"#utility.yul\":8208:8221   */\n      gt\n        /* \"#utility.yul\":8205:8306   */\n      iszero\n      tag_253\n      jumpi\n        /* \"#utility.yul\":8294:8295   */\n      0x00\n        /* \"#utility.yul\":8285:8291   */\n      dup5\n        /* \"#utility.yul\":8280:8283   */\n      dup5\n        /* \"#utility.yul\":8276:8292   */\n      add\n        /* \"#utility.yul\":8269:8296   */\n      mstore\n        /* \"#utility.yul\":8205:8306   */\n    tag_253:\n        /* \"#utility.yul\":8054:8312   */\n      pop\n        /* \"#utility.yul\":8005:8312   */\n      pop\n      pop\n      pop\n      jump\t// out\n        /* \"#utility.yul\":8318:8678   */\n    tag_135:\n        /* \"#utility.yul\":8404:8407   */\n      0x00\n        /* \"#utility.yul\":8432:8470   */\n      tag_255\n        /* \"#utility.yul\":8464:8469   */\n      dup3\n        /* \"#utility.yul\":8432:8470   */\n      tag_132\n      jump\t// in\n    tag_255:\n        /* \"#utility.yul\":8486:8556   */\n      tag_256\n        /* \"#utility.yul\":8549:8555   */\n      dup2\n        /* \"#utility.yul\":8544:8547   */\n      dup6\n        /* \"#utility.yul\":8486:8556   */\n      tag_133\n      jump\t// in\n    tag_256:\n        /* \"#utility.yul\":8479:8556   */\n      swap4\n      pop\n        /* \"#utility.yul\":8565:8617   */\n      tag_257\n        /* \"#utility.yul\":8610:8616   */\n      dup2\n        /* \"#utility.yul\":8605:8608   */\n      dup6\n        /* \"#utility.yul\":8598:8602   */\n      0x20\n        /* \"#utility.yul\":8591:8596   */\n      dup7\n        /* \"#utility.yul\":8587:8603   */\n      add\n        /* \"#utility.yul\":8565:8617   */\n      tag_134\n      jump\t// in\n    tag_257:\n        /* \"#utility.yul\":8642:8671   */\n      tag_258\n        /* \"#utility.yul\":8664:8670   */\n      dup2\n        /* \"#utility.yul\":8642:8671   */\n      tag_124\n      jump\t// in\n    tag_258:\n        /* \"#utility.yul\":8637:8640   */\n      dup5\n        /* \"#utility.yul\":8633:8672   */\n      add\n        /* \"#utility.yul\":8626:8672   */\n      swap2\n      pop\n        /* \"#utility.yul\":8408:8678   */\n      pop\n        /* \"#utility.yul\":8318:8678   */\n      swap3\n      swap2\n      pop\n      pop\n      jump\t// out\n        /* \"#utility.yul\":8684:8993   */\n    tag_63:\n        /* \"#utility.yul\":8795:8799   */\n      0x00\n        /* \"#utility.yul\":8833:8835   */\n      0x20\n        /* \"#utility.yul\":8822:8831   */\n      dup3\n        /* \"#utility.yul\":8818:8836   */\n      add\n        /* \"#utility.yul\":8810:8836   */\n      swap1\n      pop\n        /* \"#utility.yul\":8882:8891   */\n      dup2\n        /* \"#utility.yul\":8876:8880   */\n      dup2\n        /* \"#utility.yul\":8872:8892   */\n      sub\n        /* \"#utility.yul\":8868:8869   */\n      0x00\n        /* \"#utility.yul\":8857:8866   */\n      dup4\n        /* \"#utility.yul\":8853:8870   */\n      add\n        /* \"#utility.yul\":8846:8893   */\n      mstore\n        /* \"#utility.yul\":8910:8986   */\n      tag_260\n        /* \"#utility.yul\":8981:8985   */\n      dup2\n        /* \"#utility.yul\":8972:8978   */\n      dup5\n        /* \"#utility.yul\":8910:8986   */\n      tag_135\n      jump\t// in\n    tag_260:\n        /* \"#utility.yul\":8902:8986   */\n      swap1\n      pop\n        /* \"#utility.yul\":8684:8993   */\n      swap3\n      swap2\n      pop\n      pop\n      jump\t// out\n        /* \"#utility.yul\":8999:9168   */\n    tag_136:\n        /* \"#utility.yul\":9083:9094   */\n      0x00\n        /* \"#utility.yul\":9117:9123   */\n      dup3\n        /* \"#utility.yul\":9112:9115   */\n      dup3\n        /* \"#utility.yul\":9105:9124   */\n      mstore\n        /* \"#utility.yul\":9157:9161   */\n      0x20\n        /* \"#utility.yul\":9152:9155   */\n      dup3\n        /* \"#utility.yul\":9148:9162   */\n      add\n        /* \"#utility.yul\":9133:9162   */\n      swap1\n      pop\n        /* \"#utility.yul\":8999:9168   */\n      swap3\n      swap2\n      pop\n      pop\n      jump\t// out\n        /* \"#utility.yul\":9174:9355   */\n    tag_137:\n        /* \"#utility.yul\":9314:9347   */\n      0x596f7520617265206e6f7420746865206f776e65722c2061626f7274696e6700\n        /* \"#utility.yul\":9310:9311   */\n      0x00\n        /* \"#utility.yul\":9302:9308   */\n      dup3\n        /* \"#utility.yul\":9298:9312   */\n      add\n        /* \"#utility.yul\":9291:9348   */\n      mstore\n        /* \"#utility.yul\":9174:9355   */\n      pop\n      jump\t// out\n        /* \"#utility.yul\":9361:9727   */\n    tag_138:\n        /* \"#utility.yul\":9503:9506   */\n      0x00\n        /* \"#utility.yul\":9524:9591   */\n      tag_264\n        /* \"#utility.yul\":9588:9590   */\n      0x1f\n        /* \"#utility.yul\":9583:9586   */\n      dup4\n        /* \"#utility.yul\":9524:9591   */\n      tag_136\n      jump\t// in\n    tag_264:\n        /* \"#utility.yul\":9517:9591   */\n      swap2\n      pop\n        /* \"#utility.yul\":9600:9693   */\n      tag_265\n        /* \"#utility.yul\":9689:9692   */\n      dup3\n        /* \"#utility.yul\":9600:9693   */\n      tag_137\n      jump\t// in\n    tag_265:\n        /* \"#utility.yul\":9718:9720   */\n      0x20\n        /* \"#utility.yul\":9713:9716   */\n      dup3\n        /* \"#utility.yul\":9709:9721   */\n      add\n        /* \"#utility.yul\":9702:9721   */\n      swap1\n      pop\n        /* \"#utility.yul\":9361:9727   */\n      swap2\n      swap1\n      pop\n      jump\t// out\n        /* \"#utility.yul\":9733:10152   */\n    tag_67:\n        /* \"#utility.yul\":9899:9903   */\n      0x00\n        /* \"#utility.yul\":9937:9939   */\n      0x20\n        /* \"#utility.yul\":9926:9935   */\n      dup3\n        /* \"#utility.yul\":9922:9940   */\n      add\n        /* \"#utility.yul\":9914:9940   */\n      swap1\n      pop\n        /* \"#utility.yul\":9986:9995   */\n      dup2\n        /* \"#utility.yul\":9980:9984   */\n      dup2\n        /* \"#utility.yul\":9976:9996   */\n      sub\n        /* \"#utility.yul\":9972:9973   */\n      0x00\n        /* \"#utility.yul\":9961:9970   */\n      dup4\n        /* \"#utility.yul\":9957:9974   */\n      add\n        /* \"#utility.yul\":9950:9997   */\n      mstore\n        /* \"#utility.yul\":10014:10145   */\n      tag_267\n        /* \"#utility.yul\":10140:10144   */\n      dup2\n        /* \"#utility.yul\":10014:10145   */\n      tag_138\n      jump\t// in\n    tag_267:\n        /* \"#utility.yul\":10006:10145   */\n      swap1\n      pop\n        /* \"#utility.yul\":9733:10152   */\n      swap2\n      swap1\n      pop\n      jump\t// out\n        /* \"#utility.yul\":10158:10340   */\n    tag_139:\n        /* \"#utility.yul\":10298:10332   */\n      0x596f7520617265206e6f74206120677561726469616e2c20676f20617761792e\n        /* \"#utility.yul\":10294:10295   */\n      0x00\n        /* \"#utility.yul\":10286:10292   */\n      dup3\n        /* \"#utility.yul\":10282:10296   */\n      add\n        /* \"#utility.yul\":10275:10333   */\n      mstore\n        /* \"#utility.yul\":10158:10340   */\n      pop\n      jump\t// out\n        /* \"#utility.yul\":10346:10712   */\n    tag_140:\n        /* \"#utility.yul\":10488:10491   */\n      0x00\n        /* \"#utility.yul\":10509:10576   */\n      tag_270\n        /* \"#utility.yul\":10573:10575   */\n      0x20\n        /* \"#utility.yul\":10568:10571   */\n      dup4\n        /* \"#utility.yul\":10509:10576   */\n      tag_136\n      jump\t// in\n    tag_270:\n        /* \"#utility.yul\":10502:10576   */\n      swap2\n      pop\n        /* \"#utility.yul\":10585:10678   */\n      tag_271\n        /* \"#utility.yul\":10674:10677   */\n      dup3\n        /* \"#utility.yul\":10585:10678   */\n      tag_139\n      jump\t// in\n    tag_271:\n        /* \"#utility.yul\":10703:10705   */\n      0x20\n        /* \"#utility.yul\":10698:10701   */\n      dup3\n        /* \"#utility.yul\":10694:10706   */\n      add\n        /* \"#utility.yul\":10687:10706   */\n      swap1\n      pop\n        /* \"#utility.yul\":10346:10712   */\n      swap2\n      swap1\n      pop\n      jump\t// out\n        /* \"#utility.yul\":10718:11137   */\n    tag_76:\n        /* \"#utility.yul\":10884:10888   */\n      0x00\n        /* \"#utility.yul\":10922:10924   */\n      0x20\n        /* \"#utility.yul\":10911:10920   */\n      dup3\n        /* \"#utility.yul\":10907:10925   */\n      add\n        /* \"#utility.yul\":10899:10925   */\n      swap1\n      pop\n        /* \"#utility.yul\":10971:10980   */\n      dup2\n        /* \"#utility.yul\":10965:10969   */\n      dup2\n        /* \"#utility.yul\":10961:10981   */\n      sub\n        /* \"#utility.yul\":10957:10958   */\n      0x00\n        /* \"#utility.yul\":10946:10955   */\n      dup4\n        /* \"#utility.yul\":10942:10959   */\n      add\n        /* \"#utility.yul\":10935:10982   */\n      mstore\n        /* \"#utility.yul\":10999:11130   */\n      tag_273\n        /* \"#utility.yul\":11125:11129   */\n      dup2\n        /* \"#utility.yul\":10999:11130   */\n      tag_140\n      jump\t// in\n    tag_273:\n        /* \"#utility.yul\":10991:11130   */\n      swap1\n      pop\n        /* \"#utility.yul\":10718:11137   */\n      swap2\n      swap1\n      pop\n      jump\t// out\n        /* \"#utility.yul\":11143:11310   */\n    tag_141:\n        /* \"#utility.yul\":11283:11302   */\n      0x596f7520616c726561647920766f746564000000000000000000000000000000\n        /* \"#utility.yul\":11279:11280   */\n      0x00\n        /* \"#utility.yul\":11271:11277   */\n      dup3\n        /* \"#utility.yul\":11267:11281   */\n      add\n        /* \"#utility.yul\":11260:11303   */\n      mstore\n        /* \"#utility.yul\":11143:11310   */\n      pop\n      jump\t// out\n        /* \"#utility.yul\":11316:11682   */\n    tag_142:\n        /* \"#utility.yul\":11458:11461   */\n      0x00\n        /* \"#utility.yul\":11479:11546   */\n      tag_276\n        /* \"#utility.yul\":11543:11545   */\n      0x11\n        /* \"#utility.yul\":11538:11541   */\n      dup4\n        /* \"#utility.yul\":11479:11546   */\n      tag_136\n      jump\t// in\n    tag_276:\n        /* \"#utility.yul\":11472:11546   */\n      swap2\n      pop\n        /* \"#utility.yul\":11555:11648   */\n      tag_277\n        /* \"#utility.yul\":11644:11647   */\n      dup3\n        /* \"#utility.yul\":11555:11648   */\n      tag_141\n      jump\t// in\n    tag_277:\n        /* \"#utility.yul\":11673:11675   */\n      0x20\n        /* \"#utility.yul\":11668:11671   */\n      dup3\n        /* \"#utility.yul\":11664:11676   */\n      add\n        /* \"#utility.yul\":11657:11676   */\n      swap1\n      pop\n        /* \"#utility.yul\":11316:11682   */\n      swap2\n      swap1\n      pop\n      jump\t// out\n        /* \"#utility.yul\":11688:12107   */\n    tag_79:\n        /* \"#utility.yul\":11854:11858   */\n      0x00\n        /* \"#utility.yul\":11892:11894   */\n      0x20\n        /* \"#utility.yul\":11881:11890   */\n      dup3\n        /* \"#utility.yul\":11877:11895   */\n      add\n        /* \"#utility.yul\":11869:11895   */\n      swap1\n      pop\n        /* \"#utility.yul\":11941:11950   */\n      dup2\n        /* \"#utility.yul\":11935:11939   */\n      dup2\n        /* \"#utility.yul\":11931:11951   */\n      sub\n        /* \"#utility.yul\":11927:11928   */\n      0x00\n        /* \"#utility.yul\":11916:11925   */\n      dup4\n        /* \"#utility.yul\":11912:11929   */\n      add\n        /* \"#utility.yul\":11905:11952   */\n      mstore\n        /* \"#utility.yul\":11969:12100   */\n      tag_279\n        /* \"#utility.yul\":12095:12099   */\n      dup2\n        /* \"#utility.yul\":11969:12100   */\n      tag_142\n      jump\t// in\n    tag_279:\n        /* \"#utility.yul\":11961:12100   */\n      swap1\n      pop\n        /* \"#utility.yul\":11688:12107   */\n      swap2\n      swap1\n      pop\n      jump\t// out\n        /* \"#utility.yul\":12113:12293   */\n    tag_143:\n        /* \"#utility.yul\":12161:12238   */\n      0x4e487b7100000000000000000000000000000000000000000000000000000000\n        /* \"#utility.yul\":12158:12159   */\n      0x00\n        /* \"#utility.yul\":12151:12239   */\n      mstore\n        /* \"#utility.yul\":12258:12262   */\n      0x11\n        /* \"#utility.yul\":12255:12256   */\n      0x04\n        /* \"#utility.yul\":12248:12263   */\n      mstore\n        /* \"#utility.yul\":12282:12286   */\n      0x24\n        /* \"#utility.yul\":12279:12280   */\n      0x00\n        /* \"#utility.yul\":12272:12287   */\n      revert\n        /* \"#utility.yul\":12299:12532   */\n    tag_82:\n        /* \"#utility.yul\":12338:12341   */\n      0x00\n        /* \"#utility.yul\":12361:12385   */\n      tag_282\n        /* \"#utility.yul\":12379:12384   */\n      dup3\n        /* \"#utility.yul\":12361:12385   */\n      tag_114\n      jump\t// in\n    tag_282:\n        /* \"#utility.yul\":12352:12385   */\n      swap2\n      pop\n        /* \"#utility.yul\":12407:12473   */\n      0xffffffffffffffffffffffffffffffffffffffffffffffffffffffffffffffff\n        /* \"#utility.yul\":12400:12405   */\n      dup3\n        /* \"#utility.yul\":12397:12474   */\n      sub\n        /* \"#utility.yul\":12394:12497   */\n      tag_283\n      jumpi\n        /* \"#utility.yul\":12477:12495   */\n      tag_284\n      tag_143\n      jump\t// in\n    tag_284:\n        /* \"#utility.yul\":12394:12497   */\n    tag_283:\n        /* \"#utility.yul\":12524:12525   */\n      0x01\n        /* \"#utility.yul\":12517:12522   */\n      dup3\n        /* \"#utility.yul\":12513:12526   */\n      add\n        /* \"#utility.yul\":12506:12526   */\n      swap1\n      pop\n        /* \"#utility.yul\":12299:12532   */\n      swap2\n      swap1\n      pop\n      jump\t// out\n        /* \"#utility.yul\":12538:12833   */\n    tag_144:\n        /* \"#utility.yul\":12678:12712   */\n      0x596f7520617265206e6f7420616c6c6f77656420746f2073656e6420616e7974\n        /* \"#utility.yul\":12674:12675   */\n      0x00\n        /* \"#utility.yul\":12666:12672   */\n      dup3\n        /* \"#utility.yul\":12662:12676   */\n      add\n        /* \"#utility.yul\":12655:12713   */\n      mstore\n        /* \"#utility.yul\":12747:12781   */\n      0x68696e672066726f6d207468697320736d61727420636f6e74726163742c2061\n        /* \"#utility.yul\":12742:12744   */\n      0x20\n        /* \"#utility.yul\":12734:12740   */\n      dup3\n        /* \"#utility.yul\":12730:12745   */\n      add\n        /* \"#utility.yul\":12723:12782   */\n      mstore\n        /* \"#utility.yul\":12816:12825   */\n      0x626f7274696e6700000000000000000000000000000000000000000000000000\n        /* \"#utility.yul\":12811:12813   */\n      0x40\n        /* \"#utility.yul\":12803:12809   */\n      dup3\n        /* \"#utility.yul\":12799:12814   */\n      add\n        /* \"#utility.yul\":12792:12826   */\n      mstore\n        /* \"#utility.yul\":12538:12833   */\n      pop\n      jump\t// out\n        /* \"#utility.yul\":12839:13205   */\n    tag_145:\n        /* \"#utility.yul\":12981:12984   */\n      0x00\n        /* \"#utility.yul\":13002:13069   */\n      tag_287\n        /* \"#utility.yul\":13066:13068   */\n      0x47\n        /* \"#utility.yul\":13061:13064   */\n      dup4\n        /* \"#utility.yul\":13002:13069   */\n      tag_136\n      jump\t// in\n    tag_287:\n        /* \"#utility.yul\":12995:13069   */\n      swap2\n      pop\n        /* \"#utility.yul\":13078:13171   */\n      tag_288\n        /* \"#utility.yul\":13167:13170   */\n      dup3\n        /* \"#utility.yul\":13078:13171   */\n      tag_144\n      jump\t// in\n    tag_288:\n        /* \"#utility.yul\":13196:13198   */\n      0x60\n        /* \"#utility.yul\":13191:13194   */\n      dup3\n        /* \"#utility.yul\":13187:13199   */\n      add\n        /* \"#utility.yul\":13180:13199   */\n      swap1\n      pop\n        /* \"#utility.yul\":12839:13205   */\n      swap2\n      swap1\n      pop\n      jump\t// out\n        /* \"#utility.yul\":13211:13630   */\n    tag_89:\n        /* \"#utility.yul\":13377:13381   */\n      0x00\n        /* \"#utility.yul\":13415:13417   */\n      0x20\n        /* \"#utility.yul\":13404:13413   */\n      dup3\n        /* \"#utility.yul\":13400:13418   */\n      add\n        /* \"#utility.yul\":13392:13418   */\n      swap1\n      pop\n        /* \"#utility.yul\":13464:13473   */\n      dup2\n        /* \"#utility.yul\":13458:13462   */\n      dup2\n        /* \"#utility.yul\":13454:13474   */\n      sub\n        /* \"#utility.yul\":13450:13451   */\n      0x00\n        /* \"#utility.yul\":13439:13448   */\n      dup4\n        /* \"#utility.yul\":13435:13452   */\n      add\n        /* \"#utility.yul\":13428:13475   */\n      mstore\n        /* \"#utility.yul\":13492:13623   */\n      tag_290\n        /* \"#utility.yul\":13618:13622   */\n      dup2\n        /* \"#utility.yul\":13492:13623   */\n      tag_145\n      jump\t// in\n    tag_290:\n        /* \"#utility.yul\":13484:13623   */\n      swap1\n      pop\n        /* \"#utility.yul\":13211:13630   */\n      swap2\n      swap1\n      pop\n      jump\t// out\n        /* \"#utility.yul\":13636:13926   */\n    tag_146:\n        /* \"#utility.yul\":13776:13810   */\n      0x596f752061726520747279696e6720746f2073656e64206d6f7265207468616e\n        /* \"#utility.yul\":13772:13773   */\n      0x00\n        /* \"#utility.yul\":13764:13770   */\n      dup3\n        /* \"#utility.yul\":13760:13774   */\n      add\n        /* \"#utility.yul\":13753:13811   */\n      mstore\n        /* \"#utility.yul\":13845:13879   */\n      0x20796f752061726520616c6c6f77656420746f2073656e642c2061626f727469\n        /* \"#utility.yul\":13840:13842   */\n      0x20\n        /* \"#utility.yul\":13832:13838   */\n      dup3\n        /* \"#utility.yul\":13828:13843   */\n      add\n        /* \"#utility.yul\":13821:13880   */\n      mstore\n        /* \"#utility.yul\":13914:13918   */\n      0x6e67000000000000000000000000000000000000000000000000000000000000\n        /* \"#utility.yul\":13909:13911   */\n      0x40\n        /* \"#utility.yul\":13901:13907   */\n      dup3\n        /* \"#utility.yul\":13897:13912   */\n      add\n        /* \"#utility.yul\":13890:13919   */\n      mstore\n        /* \"#utility.yul\":13636:13926   */\n      pop\n      jump\t// out\n        /* \"#utility.yul\":13932:14298   */\n    tag_147:\n        /* \"#utility.yul\":14074:14077   */\n      0x00\n        /* \"#utility.yul\":14095:14162   */\n      tag_293\n        /* \"#utility.yul\":14159:14161   */\n      0x42\n        /* \"#utility.yul\":14154:14157   */\n      dup4\n        /* \"#utility.yul\":14095:14162   */\n      tag_136\n      jump\t// in\n    tag_293:\n        /* \"#utility.yul\":14088:14162   */\n      swap2\n      pop\n        /* \"#utility.yul\":14171:14264   */\n      tag_294\n        /* \"#utility.yul\":14260:14263   */\n      dup3\n        /* \"#utility.yul\":14171:14264   */\n      tag_146\n      jump\t// in\n    tag_294:\n        /* \"#utility.yul\":14289:14291   */\n      0x60\n        /* \"#utility.yul\":14284:14287   */\n      dup3\n        /* \"#utility.yul\":14280:14292   */\n      add\n        /* \"#utility.yul\":14273:14292   */\n      swap1\n      pop\n        /* \"#utility.yul\":13932:14298   */\n      swap2\n      swap1\n      pop\n      jump\t// out\n        /* \"#utility.yul\":14304:14723   */\n    tag_92:\n        /* \"#utility.yul\":14470:14474   */\n      0x00\n        /* \"#utility.yul\":14508:14510   */\n      0x20\n        /* \"#utility.yul\":14497:14506   */\n      dup3\n        /* \"#utility.yul\":14493:14511   */\n      add\n        /* \"#utility.yul\":14485:14511   */\n      swap1\n      pop\n        /* \"#utility.yul\":14557:14566   */\n      dup2\n        /* \"#utility.yul\":14551:14555   */\n      dup2\n        /* \"#utility.yul\":14547:14567   */\n      sub\n        /* \"#utility.yul\":14543:14544   */\n      0x00\n        /* \"#utility.yul\":14532:14541   */\n      dup4\n        /* \"#utility.yul\":14528:14545   */\n      add\n        /* \"#utility.yul\":14521:14568   */\n      mstore\n        /* \"#utility.yul\":14585:14716   */\n      tag_296\n        /* \"#utility.yul\":14711:14715   */\n      dup2\n        /* \"#utility.yul\":14585:14716   */\n      tag_147\n      jump\t// in\n    tag_296:\n        /* \"#utility.yul\":14577:14716   */\n      swap1\n      pop\n        /* \"#utility.yul\":14304:14723   */\n      swap2\n      swap1\n      pop\n      jump\t// out\n        /* \"#utility.yul\":14729:14920   */\n    tag_94:\n        /* \"#utility.yul\":14769:14773   */\n      0x00\n        /* \"#utility.yul\":14789:14809   */\n      tag_298\n        /* \"#utility.yul\":14807:14808   */\n      dup3\n        /* \"#utility.yul\":14789:14809   */\n      tag_114\n      jump\t// in\n    tag_298:\n        /* \"#utility.yul\":14784:14809   */\n      swap2\n      pop\n        /* \"#utility.yul\":14823:14843   */\n      tag_299\n        /* \"#utility.yul\":14841:14842   */\n      dup4\n        /* \"#utility.yul\":14823:14843   */\n      tag_114\n      jump\t// in\n    tag_299:\n        /* \"#utility.yul\":14818:14843   */\n      swap3\n      pop\n        /* \"#utility.yul\":14862:14863   */\n      dup3\n        /* \"#utility.yul\":14859:14860   */\n      dup3\n        /* \"#utility.yul\":14856:14864   */\n      lt\n        /* \"#utility.yul\":14853:14887   */\n      iszero\n      tag_300\n      jumpi\n        /* \"#utility.yul\":14867:14885   */\n      tag_301\n      tag_143\n      jump\t// in\n    tag_301:\n        /* \"#utility.yul\":14853:14887   */\n    tag_300:\n        /* \"#utility.yul\":14912:14913   */\n      dup3\n        /* \"#utility.yul\":14909:14910   */\n      dup3\n        /* \"#utility.yul\":14905:14914   */\n      sub\n        /* \"#utility.yul\":14897:14914   */\n      swap1\n      pop\n        /* \"#utility.yul\":14729:14920   */\n      swap3\n      swap2\n      pop\n      pop\n      jump\t// out\n        /* \"#utility.yul\":14926:15073   */\n    tag_148:\n        /* \"#utility.yul\":15027:15038   */\n      0x00\n        /* \"#utility.yul\":15064:15067   */\n      dup2\n        /* \"#utility.yul\":15049:15067   */\n      swap1\n      pop\n        /* \"#utility.yul\":14926:15073   */\n      swap3\n      swap2\n      pop\n      pop\n      jump\t// out\n        /* \"#utility.yul\":15079:15452   */\n    tag_149:\n        /* \"#utility.yul\":15183:15186   */\n      0x00\n        /* \"#utility.yul\":15211:15249   */\n      tag_304\n        /* \"#utility.yul\":15243:15248   */\n      dup3\n        /* \"#utility.yul\":15211:15249   */\n      tag_132\n      jump\t// in\n    tag_304:\n        /* \"#utility.yul\":15265:15353   */\n      tag_305\n        /* \"#utility.yul\":15346:15352   */\n      dup2\n        /* \"#utility.yul\":15341:15344   */\n      dup6\n        /* \"#utility.yul\":15265:15353   */\n      tag_148\n      jump\t// in\n    tag_305:\n        /* \"#utility.yul\":15258:15353   */\n      swap4\n      pop\n        /* \"#utility.yul\":15362:15414   */\n      tag_306\n        /* \"#utility.yul\":15407:15413   */\n      dup2\n        /* \"#utility.yul\":15402:15405   */\n      dup6\n        /* \"#utility.yul\":15395:15399   */\n      0x20\n        /* \"#utility.yul\":15388:15393   */\n      dup7\n        /* \"#utility.yul\":15384:15400   */\n      add\n        /* \"#utility.yul\":15362:15414   */\n      tag_134\n      jump\t// in\n    tag_306:\n        /* \"#utility.yul\":15439:15445   */\n      dup1\n        /* \"#utility.yul\":15434:15437   */\n      dup5\n        /* \"#utility.yul\":15430:15446   */\n      add\n        /* \"#utility.yul\":15423:15446   */\n      swap2\n      pop\n        /* \"#utility.yul\":15187:15452   */\n      pop\n        /* \"#utility.yul\":15079:15452   */\n      swap3\n      swap2\n      pop\n      pop\n      jump\t// out\n        /* \"#utility.yul\":15458:15729   */\n    tag_96:\n        /* \"#utility.yul\":15588:15591   */\n      0x00\n        /* \"#utility.yul\":15610:15703   */\n      tag_308\n        /* \"#utility.yul\":15699:15702   */\n      dup3\n        /* \"#utility.yul\":15690:15696   */\n      dup5\n        /* \"#utility.yul\":15610:15703   */\n      tag_149\n      jump\t// in\n    tag_308:\n        /* \"#utility.yul\":15603:15703   */\n      swap2\n      pop\n        /* \"#utility.yul\":15720:15723   */\n      dup2\n        /* \"#utility.yul\":15713:15723   */\n      swap1\n      pop\n        /* \"#utility.yul\":15458:15729   */\n      swap3\n      swap2\n      pop\n      pop\n      jump\t// out\n        /* \"#utility.yul\":15735:15956   */\n    tag_150:\n        /* \"#utility.yul\":15875:15909   */\n      0x43616c6c20776173206e6f74207375636365737366756c652c2061626f727469\n        /* \"#utility.yul\":15871:15872   */\n      0x00\n        /* \"#utility.yul\":15863:15869   */\n      dup3\n        /* \"#utility.yul\":15859:15873   */\n      add\n        /* \"#utility.yul\":15852:15910   */\n      mstore\n        /* \"#utility.yul\":15944:15948   */\n      0x6e67000000000000000000000000000000000000000000000000000000000000\n        /* \"#utility.yul\":15939:15941   */\n      0x20\n        /* \"#utility.yul\":15931:15937   */\n      dup3\n        /* \"#utility.yul\":15927:15942   */\n      add\n        /* \"#utility.yul\":15920:15949   */\n      mstore\n        /* \"#utility.yul\":15735:15956   */\n      pop\n      jump\t// out\n        /* \"#utility.yul\":15962:16328   */\n    tag_151:\n        /* \"#utility.yul\":16104:16107   */\n      0x00\n        /* \"#utility.yul\":16125:16192   */\n      tag_311\n        /* \"#utility.yul\":16189:16191   */\n      0x22\n        /* \"#utility.yul\":16184:16187   */\n      dup4\n        /* \"#utility.yul\":16125:16192   */\n      tag_136\n      jump\t// in\n    tag_311:\n        /* \"#utility.yul\":16118:16192   */\n      swap2\n      pop\n        /* \"#utility.yul\":16201:16294   */\n      tag_312\n        /* \"#utility.yul\":16290:16293   */\n      dup3\n        /* \"#utility.yul\":16201:16294   */\n      tag_150\n      jump\t// in\n    tag_312:\n        /* \"#utility.yul\":16319:16321   */\n      0x40\n        /* \"#utility.yul\":16314:16317   */\n      dup3\n        /* \"#utility.yul\":16310:16322   */\n      add\n        /* \"#utility.yul\":16303:16322   */\n      swap1\n      pop\n        /* \"#utility.yul\":15962:16328   */\n      swap2\n      swap1\n      pop\n      jump\t// out\n        /* \"#utility.yul\":16334:16753   */\n    tag_102:\n        /* \"#utility.yul\":16500:16504   */\n      0x00\n        /* \"#utility.yul\":16538:16540   */\n      0x20\n        /* \"#utility.yul\":16527:16536   */\n      dup3\n        /* \"#utility.yul\":16523:16541   */\n      add\n        /* \"#utility.yul\":16515:16541   */\n      swap1\n      pop\n        /* \"#utility.yul\":16587:16596   */\n      dup2\n        /* \"#utility.yul\":16581:16585   */\n      dup2\n        /* \"#utility.yul\":16577:16597   */\n      sub\n        /* \"#utility.yul\":16573:16574   */\n      0x00\n        /* \"#utility.yul\":16562:16571   */\n      dup4\n        /* \"#utility.yul\":16558:16575   */\n      add\n        /* \"#utility.yul\":16551:16598   */\n      mstore\n        /* \"#utility.yul\":16615:16746   */\n      tag_314\n        /* \"#utility.yul\":16741:16745   */\n      dup2\n        /* \"#utility.yul\":16615:16746   */\n      tag_151\n      jump\t// in\n    tag_314:\n        /* \"#utility.yul\":16607:16746   */\n      swap1\n      pop\n        /* \"#utility.yul\":16334:16753   */\n      swap2\n      swap1\n      pop\n      jump\t// out\n\n    auxdata: 0xa264697066735822122089baa11e264fb82f98eac6f2ab7ad15c930e69fad924666cf9d4ac1189b4739664736f6c634300080f0033\n}\n",
				"bytecode": {
					"linkReferences": {},
					"object": "608060405234801561001057600080fd5b50336000806101000a81548173ffffffffffffffffffffffffffffffffffffffff021916908373ffffffffffffffffffffffffffffffffffffffff1602179055506113cb806100606000396000f3fe60806040526004361061008a5760003560e01c80633e5beab9116100595780633e5beab91461016257806358e404b11461019f5780638da5cb5b146101ca578063b1f8100d146101f5578063be45fd621461021e57610091565b80630633b14a146100965780630bc605ad146100d35780632b8a1c5a14610110578063310ec4a71461013957610091565b3661009157005b600080fd5b3480156100a257600080fd5b506100bd60048036038101906100b89190610add565b61025b565b6040516100ca9190610b25565b60405180910390f35b3480156100df57600080fd5b506100fa60048036038101906100f59190610add565b61027b565b6040516101079190610b25565b60405180910390f35b34801561011c57600080fd5b5061013760048036038101906101329190610b6c565b61029b565b005b34801561014557600080fd5b50610160600480360381019061015b9190610be2565b610384565b005b34801561016e57600080fd5b5061018960048036038101906101849190610add565b610519565b6040516101969190610c31565b60405180910390f35b3480156101ab57600080fd5b506101b4610531565b6040516101c19190610c31565b60405180910390f35b3480156101d657600080fd5b506101df610536565b6040516101ec9190610c6d565b60405180910390f35b34801561020157600080fd5b5061021c60048036038101906102179190610cb4565b61055a565b005b34801561022a57600080fd5b5061024560048036038101906102409190610e27565b6107f5565b6040516102529190610f1e565b60405180910390f35b60036020528060005260406000206000915054906101000a900460ff1681565b60026020528060005260406000206000915054906101000a900460ff1681565b60008054906101000a900473ffffffffffffffffffffffffffffffffffffffff1673ffffffffffffffffffffffffffffffffffffffff163373ffffffffffffffffffffffffffffffffffffffff1614610329576040517f08c379a000000000000000000000000000000000000000000000000000000000815260040161032090610f9d565b60405180910390fd5b80600360008473ffffffffffffffffffffffffffffffffffffffff1673ffffffffffffffffffffffffffffffffffffffff16815260200190815260200160002060006101000a81548160ff0219169083151502179055505050565b60008054906101000a900473ffffffffffffffffffffffffffffffffffffffff1673ffffffffffffffffffffffffffffffffffffffff163373ffffffffffffffffffffffffffffffffffffffff1614610412576040517f08c379a000000000000000000000000000000000000000000000000000000000815260040161040990610f9d565b60405180910390fd5b80600160008473ffffffffffffffffffffffffffffffffffffffff1673ffffffffffffffffffffffffffffffffffffffff1681526020019081526020016000208190555060008111156104bc576001600260008473ffffffffffffffffffffffffffffffffffffffff1673ffffffffffffffffffffffffffffffffffffffff16815260200190815260200160002060006101000a81548160ff021916908315150217905550610515565b6000600260008473ffffffffffffffffffffffffffffffffffffffff1673ffffffffffffffffffffffffffffffffffffffff16815260200190815260200160002060006101000a81548160ff0219169083151502179055505b5050565b60016020528060005260406000206000915090505481565b600381565b60008054906101000a900473ffffffffffffffffffffffffffffffffffffffff1681565b600360003373ffffffffffffffffffffffffffffffffffffffff1673ffffffffffffffffffffffffffffffffffffffff16815260200190815260200160002060009054906101000a900460ff166105e6576040517f08c379a00000000000000000000000000000000000000000000000000000000081526004016105dd90611009565b60405180910390fd5b60001515600460008373ffffffffffffffffffffffffffffffffffffffff1673ffffffffffffffffffffffffffffffffffffffff16815260200190815260200160002060003373ffffffffffffffffffffffffffffffffffffffff1673ffffffffffffffffffffffffffffffffffffffff16815260200190815260200160002060009054906101000a900460ff161515146106b6576040517f08c379a00000000000000000000000000000000000000000000000000000000081526004016106ad90611075565b60405180910390fd5b600560009054906101000a900473ffffffffffffffffffffffffffffffffffffffff1673ffffffffffffffffffffffffffffffffffffffff168173ffffffffffffffffffffffffffffffffffffffff16146107555780600560006101000a81548173ffffffffffffffffffffffffffffffffffffffff021916908373ffffffffffffffffffffffffffffffffffffffff16021790555060006006819055505b60066000815480929190610768906110c4565b91905055506003600654106107f257600560009054906101000a900473ffffffffffffffffffffffffffffffffffffffff166000806101000a81548173ffffffffffffffffffffffffffffffffffffffff021916908373ffffffffffffffffffffffffffffffffffffffff160217905550600660008154809291906107ec906110c4565b91905055505b50565b606060008054906101000a900473ffffffffffffffffffffffffffffffffffffffff1673ffffffffffffffffffffffffffffffffffffffff163373ffffffffffffffffffffffffffffffffffffffff16146109af57600260003373ffffffffffffffffffffffffffffffffffffffff1673ffffffffffffffffffffffffffffffffffffffff16815260200190815260200160002060009054906101000a900460ff166108d6576040517f08c379a00000000000000000000000000000000000000000000000000000000081526004016108cd906111a4565b60405180910390fd5b82600160003373ffffffffffffffffffffffffffffffffffffffff1673ffffffffffffffffffffffffffffffffffffffff168152602001908152602001600020541015610958576040517f08c379a000000000000000000000000000000000000000000000000000000000815260040161094f9061125c565b60405180910390fd5b82600160003373ffffffffffffffffffffffffffffffffffffffff1673ffffffffffffffffffffffffffffffffffffffff16815260200190815260200160002060008282546109a7919061127c565b925050819055505b6000808573ffffffffffffffffffffffffffffffffffffffff1685856040516109d891906112ec565b60006040518083038185875af1925050503d8060008114610a15576040519150601f19603f3d011682016040523d82523d6000602084013e610a1a565b606091505b509150915081610a5f576040517f08c379a0000000000000000000000000000000000000000000000000000000008152600401610a5690611375565b60405180910390fd5b80925050509392505050565b6000604051905090565b600080fd5b600080fd5b600073ffffffffffffffffffffffffffffffffffffffff82169050919050565b6000610aaa82610a7f565b9050919050565b610aba81610a9f565b8114610ac557600080fd5b50565b600081359050610ad781610ab1565b92915050565b600060208284031215610af357610af2610a75565b5b6000610b0184828501610ac8565b91505092915050565b60008115159050919050565b610b1f81610b0a565b82525050565b6000602082019050610b3a6000830184610b16565b92915050565b610b4981610b0a565b8114610b5457600080fd5b50565b600081359050610b6681610b40565b92915050565b60008060408385031215610b8357610b82610a75565b5b6000610b9185828601610ac8565b9250506020610ba285828601610b57565b9150509250929050565b6000819050919050565b610bbf81610bac565b8114610bca57600080fd5b50565b600081359050610bdc81610bb6565b92915050565b60008060408385031215610bf957610bf8610a75565b5b6000610c0785828601610ac8565b9250506020610c1885828601610bcd565b9150509250929050565b610c2b81610bac565b82525050565b6000602082019050610c466000830184610c22565b92915050565b6000610c5782610a7f565b9050919050565b610c6781610c4c565b82525050565b6000602082019050610c826000830184610c5e565b92915050565b610c9181610c4c565b8114610c9c57600080fd5b50565b600081359050610cae81610c88565b92915050565b600060208284031215610cca57610cc9610a75565b5b6000610cd884828501610c9f565b91505092915050565b600080fd5b600080fd5b6000601f19601f8301169050919050565b7f4e487b7100000000000000000000000000000000000000000000000000000000600052604160045260246000fd5b610d3482610ceb565b810181811067ffffffffffffffff82111715610d5357610d52610cfc565b5b80604052505050565b6000610d66610a6b565b9050610d728282610d2b565b919050565b600067ffffffffffffffff821115610d9257610d91610cfc565b5b610d9b82610ceb565b9050602081019050919050565b82818337600083830152505050565b6000610dca610dc584610d77565b610d5c565b905082815260208101848484011115610de657610de5610ce6565b5b610df1848285610da8565b509392505050565b600082601f830112610e0e57610e0d610ce1565b5b8135610e1e848260208601610db7565b91505092915050565b600080600060608486031215610e4057610e3f610a75565b5b6000610e4e86828701610c9f565b9350506020610e5f86828701610bcd565b925050604084013567ffffffffffffffff811115610e8057610e7f610a7a565b5b610e8c86828701610df9565b9150509250925092565b600081519050919050565b600082825260208201905092915050565b60005b83811015610ed0578082015181840152602081019050610eb5565b83811115610edf576000848401525b50505050565b6000610ef082610e96565b610efa8185610ea1565b9350610f0a818560208601610eb2565b610f1381610ceb565b840191505092915050565b60006020820190508181036000830152610f388184610ee5565b905092915050565b600082825260208201905092915050565b7f596f7520617265206e6f7420746865206f776e65722c2061626f7274696e6700600082015250565b6000610f87601f83610f40565b9150610f9282610f51565b602082019050919050565b60006020820190508181036000830152610fb681610f7a565b9050919050565b7f596f7520617265206e6f74206120677561726469616e2c20676f20617761792e600082015250565b6000610ff3602083610f40565b9150610ffe82610fbd565b602082019050919050565b6000602082019050818103600083015261102281610fe6565b9050919050565b7f596f7520616c726561647920766f746564000000000000000000000000000000600082015250565b600061105f601183610f40565b915061106a82611029565b602082019050919050565b6000602082019050818103600083015261108e81611052565b9050919050565b7f4e487b7100000000000000000000000000000000000000000000000000000000600052601160045260246000fd5b60006110cf82610bac565b91507fffffffffffffffffffffffffffffffffffffffffffffffffffffffffffffffff820361110157611100611095565b5b600182019050919050565b7f596f7520617265206e6f7420616c6c6f77656420746f2073656e6420616e797460008201527f68696e672066726f6d207468697320736d61727420636f6e74726163742c206160208201527f626f7274696e6700000000000000000000000000000000000000000000000000604082015250565b600061118e604783610f40565b91506111998261110c565b606082019050919050565b600060208201905081810360008301526111bd81611181565b9050919050565b7f596f752061726520747279696e6720746f2073656e64206d6f7265207468616e60008201527f20796f752061726520616c6c6f77656420746f2073656e642c2061626f72746960208201527f6e67000000000000000000000000000000000000000000000000000000000000604082015250565b6000611246604283610f40565b9150611251826111c4565b606082019050919050565b6000602082019050818103600083015261127581611239565b9050919050565b600061128782610bac565b915061129283610bac565b9250828210156112a5576112a4611095565b5b828203905092915050565b600081905092915050565b60006112c682610e96565b6112d081856112b0565b93506112e0818560208601610eb2565b80840191505092915050565b60006112f882846112bb565b915081905092915050565b7f43616c6c20776173206e6f74207375636365737366756c652c2061626f72746960008201527f6e67000000000000000000000000000000000000000000000000000000000000602082015250565b600061135f602283610f40565b915061136a82611303565b604082019050919050565b6000602082019050818103600083015261138e81611352565b905091905056fea264697066735822122089baa11e264fb82f98eac6f2ab7ad15c930e69fad924666cf9d4ac1189b4739664736f6c634300080f0033",
					"opcodes": "PUSH1 0x80 PUSH1 0x40 MSTORE CALLVALUE DUP1 ISZERO PUSH2 0x10 JUMPI PUSH1 0x0 DUP1 REVERT JUMPDEST POP CALLER PUSH1 0x0 DUP1 PUSH2 0x100 EXP DUP2 SLOAD DUP2 PUSH20 0xFFFFFFFFFFFFFFFFFFFFFFFFFFFFFFFFFFFFFFFF MUL NOT AND SWAP1 DUP4 PUSH20 0xFFFFFFFFFFFFFFFFFFFFFFFFFFFFFFFFFFFFFFFF AND MUL OR SWAP1 SSTORE POP PUSH2 0x13CB DUP1 PUSH2 0x60 PUSH1 0x0 CODECOPY PUSH1 0x0 RETURN INVALID PUSH1 0x80 PUSH1 0x40 MSTORE PUSH1 0x4 CALLDATASIZE LT PUSH2 0x8A JUMPI PUSH1 0x0 CALLDATALOAD PUSH1 0xE0 SHR DUP1 PUSH4 0x3E5BEAB9 GT PUSH2 0x59 JUMPI DUP1 PUSH4 0x3E5BEAB9 EQ PUSH2 0x162 JUMPI DUP1 PUSH4 0x58E404B1 EQ PUSH2 0x19F JUMPI DUP1 PUSH4 0x8DA5CB5B EQ PUSH2 0x1CA JUMPI DUP1 PUSH4 0xB1F8100D EQ PUSH2 0x1F5 JUMPI DUP1 PUSH4 0xBE45FD62 EQ PUSH2 0x21E JUMPI PUSH2 0x91 JUMP JUMPDEST DUP1 PUSH4 0x633B14A EQ PUSH2 0x96 JUMPI DUP1 PUSH4 0xBC605AD EQ PUSH2 0xD3 JUMPI DUP1 PUSH4 0x2B8A1C5A EQ PUSH2 0x110 JUMPI DUP1 PUSH4 0x310EC4A7 EQ PUSH2 0x139 JUMPI PUSH2 0x91 JUMP JUMPDEST CALLDATASIZE PUSH2 0x91 JUMPI STOP JUMPDEST PUSH1 0x0 DUP1 REVERT JUMPDEST CALLVALUE DUP1 ISZERO PUSH2 0xA2 JUMPI PUSH1 0x0 DUP1 REVERT JUMPDEST POP PUSH2 0xBD PUSH1 0x4 DUP1 CALLDATASIZE SUB DUP2 ADD SWAP1 PUSH2 0xB8 SWAP2 SWAP1 PUSH2 0xADD JUMP JUMPDEST PUSH2 0x25B JUMP JUMPDEST PUSH1 0x40 MLOAD PUSH2 0xCA SWAP2 SWAP1 PUSH2 0xB25 JUMP JUMPDEST PUSH1 0x40 MLOAD DUP1 SWAP2 SUB SWAP1 RETURN JUMPDEST CALLVALUE DUP1 ISZERO PUSH2 0xDF JUMPI PUSH1 0x0 DUP1 REVERT JUMPDEST POP PUSH2 0xFA PUSH1 0x4 DUP1 CALLDATASIZE SUB DUP2 ADD SWAP1 PUSH2 0xF5 SWAP2 SWAP1 PUSH2 0xADD JUMP JUMPDEST PUSH2 0x27B JUMP JUMPDEST PUSH1 0x40 MLOAD PUSH2 0x107 SWAP2 SWAP1 PUSH2 0xB25 JUMP JUMPDEST PUSH1 0x40 MLOAD DUP1 SWAP2 SUB SWAP1 RETURN JUMPDEST CALLVALUE DUP1 ISZERO PUSH2 0x11C JUMPI PUSH1 0x0 DUP1 REVERT JUMPDEST POP PUSH2 0x137 PUSH1 0x4 DUP1 CALLDATASIZE SUB DUP2 ADD SWAP1 PUSH2 0x132 SWAP2 SWAP1 PUSH2 0xB6C JUMP JUMPDEST PUSH2 0x29B JUMP JUMPDEST STOP JUMPDEST CALLVALUE DUP1 ISZERO PUSH2 0x145 JUMPI PUSH1 0x0 DUP1 REVERT JUMPDEST POP PUSH2 0x160 PUSH1 0x4 DUP1 CALLDATASIZE SUB DUP2 ADD SWAP1 PUSH2 0x15B SWAP2 SWAP1 PUSH2 0xBE2 JUMP JUMPDEST PUSH2 0x384 JUMP JUMPDEST STOP JUMPDEST CALLVALUE DUP1 ISZERO PUSH2 0x16E JUMPI PUSH1 0x0 DUP1 REVERT JUMPDEST POP PUSH2 0x189 PUSH1 0x4 DUP1 CALLDATASIZE SUB DUP2 ADD SWAP1 PUSH2 0x184 SWAP2 SWAP1 PUSH2 0xADD JUMP JUMPDEST PUSH2 0x519 JUMP JUMPDEST PUSH1 0x40 MLOAD PUSH2 0x196 SWAP2 SWAP1 PUSH2 0xC31 JUMP JUMPDEST PUSH1 0x40 MLOAD DUP1 SWAP2 SUB SWAP1 RETURN JUMPDEST CALLVALUE DUP1 ISZERO PUSH2 0x1AB JUMPI PUSH1 0x0 DUP1 REVERT JUMPDEST POP PUSH2 0x1B4 PUSH2 0x531 JUMP JUMPDEST PUSH1 0x40 MLOAD PUSH2 0x1C1 SWAP2 SWAP1 PUSH2 0xC31 JUMP JUMPDEST PUSH1 0x40 MLOAD DUP1 SWAP2 SUB SWAP1 RETURN JUMPDEST CALLVALUE DUP1 ISZERO PUSH2 0x1D6 JUMPI PUSH1 0x0 DUP1 REVERT JUMPDEST POP PUSH2 0x1DF PUSH2 0x536 JUMP JUMPDEST PUSH1 0x40 MLOAD PUSH2 0x1EC SWAP2 SWAP1 PUSH2 0xC6D JUMP JUMPDEST PUSH1 0x40 MLOAD DUP1 SWAP2 SUB SWAP1 RETURN JUMPDEST CALLVALUE DUP1 ISZERO PUSH2 0x201 JUMPI PUSH1 0x0 DUP1 REVERT JUMPDEST POP PUSH2 0x21C PUSH1 0x4 DUP1 CALLDATASIZE SUB DUP2 ADD SWAP1 PUSH2 0x217 SWAP2 SWAP1 PUSH2 0xCB4 JUMP JUMPDEST PUSH2 0x55A JUMP JUMPDEST STOP JUMPDEST CALLVALUE DUP1 ISZERO PUSH2 0x22A JUMPI PUSH1 0x0 DUP1 REVERT JUMPDEST POP PUSH2 0x245 PUSH1 0x4 DUP1 CALLDATASIZE SUB DUP2 ADD SWAP1 PUSH2 0x240 SWAP2 SWAP1 PUSH2 0xE27 JUMP JUMPDEST PUSH2 0x7F5 JUMP JUMPDEST PUSH1 0x40 MLOAD PUSH2 0x252 SWAP2 SWAP1 PUSH2 0xF1E JUMP JUMPDEST PUSH1 0x40 MLOAD DUP1 SWAP2 SUB SWAP1 RETURN JUMPDEST PUSH1 0x3 PUSH1 0x20 MSTORE DUP1 PUSH1 0x0 MSTORE PUSH1 0x40 PUSH1 0x0 KECCAK256 PUSH1 0x0 SWAP2 POP SLOAD SWAP1 PUSH2 0x100 EXP SWAP1 DIV PUSH1 0xFF AND DUP2 JUMP JUMPDEST PUSH1 0x2 PUSH1 0x20 MSTORE DUP1 PUSH1 0x0 MSTORE PUSH1 0x40 PUSH1 0x0 KECCAK256 PUSH1 0x0 SWAP2 POP SLOAD SWAP1 PUSH2 0x100 EXP SWAP1 DIV PUSH1 0xFF AND DUP2 JUMP JUMPDEST PUSH1 0x0 DUP1 SLOAD SWAP1 PUSH2 0x100 EXP SWAP1 DIV PUSH20 0xFFFFFFFFFFFFFFFFFFFFFFFFFFFFFFFFFFFFFFFF AND PUSH20 0xFFFFFFFFFFFFFFFFFFFFFFFFFFFFFFFFFFFFFFFF AND CALLER PUSH20 0xFFFFFFFFFFFFFFFFFFFFFFFFFFFFFFFFFFFFFFFF AND EQ PUSH2 0x329 JUMPI PUSH1 0x40 MLOAD PUSH32 0x8C379A000000000000000000000000000000000000000000000000000000000 DUP2 MSTORE PUSH1 0x4 ADD PUSH2 0x320 SWAP1 PUSH2 0xF9D JUMP JUMPDEST PUSH1 0x40 MLOAD DUP1 SWAP2 SUB SWAP1 REVERT JUMPDEST DUP1 PUSH1 0x3 PUSH1 0x0 DUP5 PUSH20 0xFFFFFFFFFFFFFFFFFFFFFFFFFFFFFFFFFFFFFFFF AND PUSH20 0xFFFFFFFFFFFFFFFFFFFFFFFFFFFFFFFFFFFFFFFF AND DUP2 MSTORE PUSH1 0x20 ADD SWAP1 DUP2 MSTORE PUSH1 0x20 ADD PUSH1 0x0 KECCAK256 PUSH1 0x0 PUSH2 0x100 EXP DUP2 SLOAD DUP2 PUSH1 0xFF MUL NOT AND SWAP1 DUP4 ISZERO ISZERO MUL OR SWAP1 SSTORE POP POP POP JUMP JUMPDEST PUSH1 0x0 DUP1 SLOAD SWAP1 PUSH2 0x100 EXP SWAP1 DIV PUSH20 0xFFFFFFFFFFFFFFFFFFFFFFFFFFFFFFFFFFFFFFFF AND PUSH20 0xFFFFFFFFFFFFFFFFFFFFFFFFFFFFFFFFFFFFFFFF AND CALLER PUSH20 0xFFFFFFFFFFFFFFFFFFFFFFFFFFFFFFFFFFFFFFFF AND EQ PUSH2 0x412 JUMPI PUSH1 0x40 MLOAD PUSH32 0x8C379A000000000000000000000000000000000000000000000000000000000 DUP2 MSTORE PUSH1 0x4 ADD PUSH2 0x409 SWAP1 PUSH2 0xF9D JUMP JUMPDEST PUSH1 0x40 MLOAD DUP1 SWAP2 SUB SWAP1 REVERT JUMPDEST DUP1 PUSH1 0x1 PUSH1 0x0 DUP5 PUSH20 0xFFFFFFFFFFFFFFFFFFFFFFFFFFFFFFFFFFFFFFFF AND PUSH20 0xFFFFFFFFFFFFFFFFFFFFFFFFFFFFFFFFFFFFFFFF AND DUP2 MSTORE PUSH1 0x20 ADD SWAP1 DUP2 MSTORE PUSH1 0x20 ADD PUSH1 0x0 KECCAK256 DUP2 SWAP1 SSTORE POP PUSH1 0x0 DUP2 GT ISZERO PUSH2 0x4BC JUMPI PUSH1 0x1 PUSH1 0x2 PUSH1 0x0 DUP5 PUSH20 0xFFFFFFFFFFFFFFFFFFFFFFFFFFFFFFFFFFFFFFFF AND PUSH20 0xFFFFFFFFFFFFFFFFFFFFFFFFFFFFFFFFFFFFFFFF AND DUP2 MSTORE PUSH1 0x20 ADD SWAP1 DUP2 MSTORE PUSH1 0x20 ADD PUSH1 0x0 KECCAK256 PUSH1 0x0 PUSH2 0x100 EXP DUP2 SLOAD DUP2 PUSH1 0xFF MUL NOT AND SWAP1 DUP4 ISZERO ISZERO MUL OR SWAP1 SSTORE POP PUSH2 0x515 JUMP JUMPDEST PUSH1 0x0 PUSH1 0x2 PUSH1 0x0 DUP5 PUSH20 0xFFFFFFFFFFFFFFFFFFFFFFFFFFFFFFFFFFFFFFFF AND PUSH20 0xFFFFFFFFFFFFFFFFFFFFFFFFFFFFFFFFFFFFFFFF AND DUP2 MSTORE PUSH1 0x20 ADD SWAP1 DUP2 MSTORE PUSH1 0x20 ADD PUSH1 0x0 KECCAK256 PUSH1 0x0 PUSH2 0x100 EXP DUP2 SLOAD DUP2 PUSH1 0xFF MUL NOT AND SWAP1 DUP4 ISZERO ISZERO MUL OR SWAP1 SSTORE POP JUMPDEST POP POP JUMP JUMPDEST PUSH1 0x1 PUSH1 0x20 MSTORE DUP1 PUSH1 0x0 MSTORE PUSH1 0x40 PUSH1 0x0 KECCAK256 PUSH1 0x0 SWAP2 POP SWAP1 POP SLOAD DUP2 JUMP JUMPDEST PUSH1 0x3 DUP2 JUMP JUMPDEST PUSH1 0x0 DUP1 SLOAD SWAP1 PUSH2 0x100 EXP SWAP1 DIV PUSH20 0xFFFFFFFFFFFFFFFFFFFFFFFFFFFFFFFFFFFFFFFF AND DUP2 JUMP JUMPDEST PUSH1 0x3 PUSH1 0x0 CALLER PUSH20 0xFFFFFFFFFFFFFFFFFFFFFFFFFFFFFFFFFFFFFFFF AND PUSH20 0xFFFFFFFFFFFFFFFFFFFFFFFFFFFFFFFFFFFFFFFF AND DUP2 MSTORE PUSH1 0x20 ADD SWAP1 DUP2 MSTORE PUSH1 0x20 ADD PUSH1 0x0 KECCAK256 PUSH1 0x0 SWAP1 SLOAD SWAP1 PUSH2 0x100 EXP SWAP1 DIV PUSH1 0xFF AND PUSH2 0x5E6 JUMPI PUSH1 0x40 MLOAD PUSH32 0x8C379A000000000000000000000000000000000000000000000000000000000 DUP2 MSTORE PUSH1 0x4 ADD PUSH2 0x5DD SWAP1 PUSH2 0x1009 JUMP JUMPDEST PUSH1 0x40 MLOAD DUP1 SWAP2 SUB SWAP1 REVERT JUMPDEST PUSH1 0x0 ISZERO ISZERO PUSH1 0x4 PUSH1 0x0 DUP4 PUSH20 0xFFFFFFFFFFFFFFFFFFFFFFFFFFFFFFFFFFFFFFFF AND PUSH20 0xFFFFFFFFFFFFFFFFFFFFFFFFFFFFFFFFFFFFFFFF AND DUP2 MSTORE PUSH1 0x20 ADD SWAP1 DUP2 MSTORE PUSH1 0x20 ADD PUSH1 0x0 KECCAK256 PUSH1 0x0 CALLER PUSH20 0xFFFFFFFFFFFFFFFFFFFFFFFFFFFFFFFFFFFFFFFF AND PUSH20 0xFFFFFFFFFFFFFFFFFFFFFFFFFFFFFFFFFFFFFFFF AND DUP2 MSTORE PUSH1 0x20 ADD SWAP1 DUP2 MSTORE PUSH1 0x20 ADD PUSH1 0x0 KECCAK256 PUSH1 0x0 SWAP1 SLOAD SWAP1 PUSH2 0x100 EXP SWAP1 DIV PUSH1 0xFF AND ISZERO ISZERO EQ PUSH2 0x6B6 JUMPI PUSH1 0x40 MLOAD PUSH32 0x8C379A000000000000000000000000000000000000000000000000000000000 DUP2 MSTORE PUSH1 0x4 ADD PUSH2 0x6AD SWAP1 PUSH2 0x1075 JUMP JUMPDEST PUSH1 0x40 MLOAD DUP1 SWAP2 SUB SWAP1 REVERT JUMPDEST PUSH1 0x5 PUSH1 0x0 SWAP1 SLOAD SWAP1 PUSH2 0x100 EXP SWAP1 DIV PUSH20 0xFFFFFFFFFFFFFFFFFFFFFFFFFFFFFFFFFFFFFFFF AND PUSH20 0xFFFFFFFFFFFFFFFFFFFFFFFFFFFFFFFFFFFFFFFF AND DUP2 PUSH20 0xFFFFFFFFFFFFFFFFFFFFFFFFFFFFFFFFFFFFFFFF AND EQ PUSH2 0x755 JUMPI DUP1 PUSH1 0x5 PUSH1 0x0 PUSH2 0x100 EXP DUP2 SLOAD DUP2 PUSH20 0xFFFFFFFFFFFFFFFFFFFFFFFFFFFFFFFFFFFFFFFF MUL NOT AND SWAP1 DUP4 PUSH20 0xFFFFFFFFFFFFFFFFFFFFFFFFFFFFFFFFFFFFFFFF AND MUL OR SWAP1 SSTORE POP PUSH1 0x0 PUSH1 0x6 DUP2 SWAP1 SSTORE POP JUMPDEST PUSH1 0x6 PUSH1 0x0 DUP2 SLOAD DUP1 SWAP3 SWAP2 SWAP1 PUSH2 0x768 SWAP1 PUSH2 0x10C4 JUMP JUMPDEST SWAP2 SWAP1 POP SSTORE POP PUSH1 0x3 PUSH1 0x6 SLOAD LT PUSH2 0x7F2 JUMPI PUSH1 0x5 PUSH1 0x0 SWAP1 SLOAD SWAP1 PUSH2 0x100 EXP SWAP1 DIV PUSH20 0xFFFFFFFFFFFFFFFFFFFFFFFFFFFFFFFFFFFFFFFF AND PUSH1 0x0 DUP1 PUSH2 0x100 EXP DUP2 SLOAD DUP2 PUSH20 0xFFFFFFFFFFFFFFFFFFFFFFFFFFFFFFFFFFFFFFFF MUL NOT AND SWAP1 DUP4 PUSH20 0xFFFFFFFFFFFFFFFFFFFFFFFFFFFFFFFFFFFFFFFF AND MUL OR SWAP1 SSTORE POP PUSH1 0x6 PUSH1 0x0 DUP2 SLOAD DUP1 SWAP3 SWAP2 SWAP1 PUSH2 0x7EC SWAP1 PUSH2 0x10C4 JUMP JUMPDEST SWAP2 SWAP1 POP SSTORE POP JUMPDEST POP JUMP JUMPDEST PUSH1 0x60 PUSH1 0x0 DUP1 SLOAD SWAP1 PUSH2 0x100 EXP SWAP1 DIV PUSH20 0xFFFFFFFFFFFFFFFFFFFFFFFFFFFFFFFFFFFFFFFF AND PUSH20 0xFFFFFFFFFFFFFFFFFFFFFFFFFFFFFFFFFFFFFFFF AND CALLER PUSH20 0xFFFFFFFFFFFFFFFFFFFFFFFFFFFFFFFFFFFFFFFF AND EQ PUSH2 0x9AF JUMPI PUSH1 0x2 PUSH1 0x0 CALLER PUSH20 0xFFFFFFFFFFFFFFFFFFFFFFFFFFFFFFFFFFFFFFFF AND PUSH20 0xFFFFFFFFFFFFFFFFFFFFFFFFFFFFFFFFFFFFFFFF AND DUP2 MSTORE PUSH1 0x20 ADD SWAP1 DUP2 MSTORE PUSH1 0x20 ADD PUSH1 0x0 KECCAK256 PUSH1 0x0 SWAP1 SLOAD SWAP1 PUSH2 0x100 EXP SWAP1 DIV PUSH1 0xFF AND PUSH2 0x8D6 JUMPI PUSH1 0x40 MLOAD PUSH32 0x8C379A000000000000000000000000000000000000000000000000000000000 DUP2 MSTORE PUSH1 0x4 ADD PUSH2 0x8CD SWAP1 PUSH2 0x11A4 JUMP JUMPDEST PUSH1 0x40 MLOAD DUP1 SWAP2 SUB SWAP1 REVERT JUMPDEST DUP3 PUSH1 0x1 PUSH1 0x0 CALLER PUSH20 0xFFFFFFFFFFFFFFFFFFFFFFFFFFFFFFFFFFFFFFFF AND PUSH20 0xFFFFFFFFFFFFFFFFFFFFFFFFFFFFFFFFFFFFFFFF AND DUP2 MSTORE PUSH1 0x20 ADD SWAP1 DUP2 MSTORE PUSH1 0x20 ADD PUSH1 0x0 KECCAK256 SLOAD LT ISZERO PUSH2 0x958 JUMPI PUSH1 0x40 MLOAD PUSH32 0x8C379A000000000000000000000000000000000000000000000000000000000 DUP2 MSTORE PUSH1 0x4 ADD PUSH2 0x94F SWAP1 PUSH2 0x125C JUMP JUMPDEST PUSH1 0x40 MLOAD DUP1 SWAP2 SUB SWAP1 REVERT JUMPDEST DUP3 PUSH1 0x1 PUSH1 0x0 CALLER PUSH20 0xFFFFFFFFFFFFFFFFFFFFFFFFFFFFFFFFFFFFFFFF AND PUSH20 0xFFFFFFFFFFFFFFFFFFFFFFFFFFFFFFFFFFFFFFFF AND DUP2 MSTORE PUSH1 0x20 ADD SWAP1 DUP2 MSTORE PUSH1 0x20 ADD PUSH1 0x0 KECCAK256 PUSH1 0x0 DUP3 DUP3 SLOAD PUSH2 0x9A7 SWAP2 SWAP1 PUSH2 0x127C JUMP JUMPDEST SWAP3 POP POP DUP2 SWAP1 SSTORE POP JUMPDEST PUSH1 0x0 DUP1 DUP6 PUSH20 0xFFFFFFFFFFFFFFFFFFFFFFFFFFFFFFFFFFFFFFFF AND DUP6 DUP6 PUSH1 0x40 MLOAD PUSH2 0x9D8 SWAP2 SWAP1 PUSH2 0x12EC JUMP JUMPDEST PUSH1 0x0 PUSH1 0x40 MLOAD DUP1 DUP4 SUB DUP2 DUP6 DUP8 GAS CALL SWAP3 POP POP POP RETURNDATASIZE DUP1 PUSH1 0x0 DUP2 EQ PUSH2 0xA15 JUMPI PUSH1 0x40 MLOAD SWAP2 POP PUSH1 0x1F NOT PUSH1 0x3F RETURNDATASIZE ADD AND DUP3 ADD PUSH1 0x40 MSTORE RETURNDATASIZE DUP3 MSTORE RETURNDATASIZE PUSH1 0x0 PUSH1 0x20 DUP5 ADD RETURNDATACOPY PUSH2 0xA1A JUMP JUMPDEST PUSH1 0x60 SWAP2 POP JUMPDEST POP SWAP2 POP SWAP2 POP DUP2 PUSH2 0xA5F JUMPI PUSH1 0x40 MLOAD PUSH32 0x8C379A000000000000000000000000000000000000000000000000000000000 DUP2 MSTORE PUSH1 0x4 ADD PUSH2 0xA56 SWAP1 PUSH2 0x1375 JUMP JUMPDEST PUSH1 0x40 MLOAD DUP1 SWAP2 SUB SWAP1 REVERT JUMPDEST DUP1 SWAP3 POP POP POP SWAP4 SWAP3 POP POP POP JUMP JUMPDEST PUSH1 0x0 PUSH1 0x40 MLOAD SWAP1 POP SWAP1 JUMP JUMPDEST PUSH1 0x0 DUP1 REVERT JUMPDEST PUSH1 0x0 DUP1 REVERT JUMPDEST PUSH1 0x0 PUSH20 0xFFFFFFFFFFFFFFFFFFFFFFFFFFFFFFFFFFFFFFFF DUP3 AND SWAP1 POP SWAP2 SWAP1 POP JUMP JUMPDEST PUSH1 0x0 PUSH2 0xAAA DUP3 PUSH2 0xA7F JUMP JUMPDEST SWAP1 POP SWAP2 SWAP1 POP JUMP JUMPDEST PUSH2 0xABA DUP2 PUSH2 0xA9F JUMP JUMPDEST DUP2 EQ PUSH2 0xAC5 JUMPI PUSH1 0x0 DUP1 REVERT JUMPDEST POP JUMP JUMPDEST PUSH1 0x0 DUP2 CALLDATALOAD SWAP1 POP PUSH2 0xAD7 DUP2 PUSH2 0xAB1 JUMP JUMPDEST SWAP3 SWAP2 POP POP JUMP JUMPDEST PUSH1 0x0 PUSH1 0x20 DUP3 DUP5 SUB SLT ISZERO PUSH2 0xAF3 JUMPI PUSH2 0xAF2 PUSH2 0xA75 JUMP JUMPDEST JUMPDEST PUSH1 0x0 PUSH2 0xB01 DUP5 DUP3 DUP6 ADD PUSH2 0xAC8 JUMP JUMPDEST SWAP2 POP POP SWAP3 SWAP2 POP POP JUMP JUMPDEST PUSH1 0x0 DUP2 ISZERO ISZERO SWAP1 POP SWAP2 SWAP1 POP JUMP JUMPDEST PUSH2 0xB1F DUP2 PUSH2 0xB0A JUMP JUMPDEST DUP3 MSTORE POP POP JUMP JUMPDEST PUSH1 0x0 PUSH1 0x20 DUP3 ADD SWAP1 POP PUSH2 0xB3A PUSH1 0x0 DUP4 ADD DUP5 PUSH2 0xB16 JUMP JUMPDEST SWAP3 SWAP2 POP POP JUMP JUMPDEST PUSH2 0xB49 DUP2 PUSH2 0xB0A JUMP JUMPDEST DUP2 EQ PUSH2 0xB54 JUMPI PUSH1 0x0 DUP1 REVERT JUMPDEST POP JUMP JUMPDEST PUSH1 0x0 DUP2 CALLDATALOAD SWAP1 POP PUSH2 0xB66 DUP2 PUSH2 0xB40 JUMP JUMPDEST SWAP3 SWAP2 POP POP JUMP JUMPDEST PUSH1 0x0 DUP1 PUSH1 0x40 DUP4 DUP6 SUB SLT ISZERO PUSH2 0xB83 JUMPI PUSH2 0xB82 PUSH2 0xA75 JUMP JUMPDEST JUMPDEST PUSH1 0x0 PUSH2 0xB91 DUP6 DUP3 DUP7 ADD PUSH2 0xAC8 JUMP JUMPDEST SWAP3 POP POP PUSH1 0x20 PUSH2 0xBA2 DUP6 DUP3 DUP7 ADD PUSH2 0xB57 JUMP JUMPDEST SWAP2 POP POP SWAP3 POP SWAP3 SWAP1 POP JUMP JUMPDEST PUSH1 0x0 DUP2 SWAP1 POP SWAP2 SWAP1 POP JUMP JUMPDEST PUSH2 0xBBF DUP2 PUSH2 0xBAC JUMP JUMPDEST DUP2 EQ PUSH2 0xBCA JUMPI PUSH1 0x0 DUP1 REVERT JUMPDEST POP JUMP JUMPDEST PUSH1 0x0 DUP2 CALLDATALOAD SWAP1 POP PUSH2 0xBDC DUP2 PUSH2 0xBB6 JUMP JUMPDEST SWAP3 SWAP2 POP POP JUMP JUMPDEST PUSH1 0x0 DUP1 PUSH1 0x40 DUP4 DUP6 SUB SLT ISZERO PUSH2 0xBF9 JUMPI PUSH2 0xBF8 PUSH2 0xA75 JUMP JUMPDEST JUMPDEST PUSH1 0x0 PUSH2 0xC07 DUP6 DUP3 DUP7 ADD PUSH2 0xAC8 JUMP JUMPDEST SWAP3 POP POP PUSH1 0x20 PUSH2 0xC18 DUP6 DUP3 DUP7 ADD PUSH2 0xBCD JUMP JUMPDEST SWAP2 POP POP SWAP3 POP SWAP3 SWAP1 POP JUMP JUMPDEST PUSH2 0xC2B DUP2 PUSH2 0xBAC JUMP JUMPDEST DUP3 MSTORE POP POP JUMP JUMPDEST PUSH1 0x0 PUSH1 0x20 DUP3 ADD SWAP1 POP PUSH2 0xC46 PUSH1 0x0 DUP4 ADD DUP5 PUSH2 0xC22 JUMP JUMPDEST SWAP3 SWAP2 POP POP JUMP JUMPDEST PUSH1 0x0 PUSH2 0xC57 DUP3 PUSH2 0xA7F JUMP JUMPDEST SWAP1 POP SWAP2 SWAP1 POP JUMP JUMPDEST PUSH2 0xC67 DUP2 PUSH2 0xC4C JUMP JUMPDEST DUP3 MSTORE POP POP JUMP JUMPDEST PUSH1 0x0 PUSH1 0x20 DUP3 ADD SWAP1 POP PUSH2 0xC82 PUSH1 0x0 DUP4 ADD DUP5 PUSH2 0xC5E JUMP JUMPDEST SWAP3 SWAP2 POP POP JUMP JUMPDEST PUSH2 0xC91 DUP2 PUSH2 0xC4C JUMP JUMPDEST DUP2 EQ PUSH2 0xC9C JUMPI PUSH1 0x0 DUP1 REVERT JUMPDEST POP JUMP JUMPDEST PUSH1 0x0 DUP2 CALLDATALOAD SWAP1 POP PUSH2 0xCAE DUP2 PUSH2 0xC88 JUMP JUMPDEST SWAP3 SWAP2 POP POP JUMP JUMPDEST PUSH1 0x0 PUSH1 0x20 DUP3 DUP5 SUB SLT ISZERO PUSH2 0xCCA JUMPI PUSH2 0xCC9 PUSH2 0xA75 JUMP JUMPDEST JUMPDEST PUSH1 0x0 PUSH2 0xCD8 DUP5 DUP3 DUP6 ADD PUSH2 0xC9F JUMP JUMPDEST SWAP2 POP POP SWAP3 SWAP2 POP POP JUMP JUMPDEST PUSH1 0x0 DUP1 REVERT JUMPDEST PUSH1 0x0 DUP1 REVERT JUMPDEST PUSH1 0x0 PUSH1 0x1F NOT PUSH1 0x1F DUP4 ADD AND SWAP1 POP SWAP2 SWAP1 POP JUMP JUMPDEST PUSH32 0x4E487B7100000000000000000000000000000000000000000000000000000000 PUSH1 0x0 MSTORE PUSH1 0x41 PUSH1 0x4 MSTORE PUSH1 0x24 PUSH1 0x0 REVERT JUMPDEST PUSH2 0xD34 DUP3 PUSH2 0xCEB JUMP JUMPDEST DUP2 ADD DUP2 DUP2 LT PUSH8 0xFFFFFFFFFFFFFFFF DUP3 GT OR ISZERO PUSH2 0xD53 JUMPI PUSH2 0xD52 PUSH2 0xCFC JUMP JUMPDEST JUMPDEST DUP1 PUSH1 0x40 MSTORE POP POP POP JUMP JUMPDEST PUSH1 0x0 PUSH2 0xD66 PUSH2 0xA6B JUMP JUMPDEST SWAP1 POP PUSH2 0xD72 DUP3 DUP3 PUSH2 0xD2B JUMP JUMPDEST SWAP2 SWAP1 POP JUMP JUMPDEST PUSH1 0x0 PUSH8 0xFFFFFFFFFFFFFFFF DUP3 GT ISZERO PUSH2 0xD92 JUMPI PUSH2 0xD91 PUSH2 0xCFC JUMP JUMPDEST JUMPDEST PUSH2 0xD9B DUP3 PUSH2 0xCEB JUMP JUMPDEST SWAP1 POP PUSH1 0x20 DUP2 ADD SWAP1 POP SWAP2 SWAP1 POP JUMP JUMPDEST DUP3 DUP2 DUP4 CALLDATACOPY PUSH1 0x0 DUP4 DUP4 ADD MSTORE POP POP POP JUMP JUMPDEST PUSH1 0x0 PUSH2 0xDCA PUSH2 0xDC5 DUP5 PUSH2 0xD77 JUMP JUMPDEST PUSH2 0xD5C JUMP JUMPDEST SWAP1 POP DUP3 DUP2 MSTORE PUSH1 0x20 DUP2 ADD DUP5 DUP5 DUP5 ADD GT ISZERO PUSH2 0xDE6 JUMPI PUSH2 0xDE5 PUSH2 0xCE6 JUMP JUMPDEST JUMPDEST PUSH2 0xDF1 DUP5 DUP3 DUP6 PUSH2 0xDA8 JUMP JUMPDEST POP SWAP4 SWAP3 POP POP POP JUMP JUMPDEST PUSH1 0x0 DUP3 PUSH1 0x1F DUP4 ADD SLT PUSH2 0xE0E JUMPI PUSH2 0xE0D PUSH2 0xCE1 JUMP JUMPDEST JUMPDEST DUP2 CALLDATALOAD PUSH2 0xE1E DUP5 DUP3 PUSH1 0x20 DUP7 ADD PUSH2 0xDB7 JUMP JUMPDEST SWAP2 POP POP SWAP3 SWAP2 POP POP JUMP JUMPDEST PUSH1 0x0 DUP1 PUSH1 0x0 PUSH1 0x60 DUP5 DUP7 SUB SLT ISZERO PUSH2 0xE40 JUMPI PUSH2 0xE3F PUSH2 0xA75 JUMP JUMPDEST JUMPDEST PUSH1 0x0 PUSH2 0xE4E DUP7 DUP3 DUP8 ADD PUSH2 0xC9F JUMP JUMPDEST SWAP4 POP POP PUSH1 0x20 PUSH2 0xE5F DUP7 DUP3 DUP8 ADD PUSH2 0xBCD JUMP JUMPDEST SWAP3 POP POP PUSH1 0x40 DUP5 ADD CALLDATALOAD PUSH8 0xFFFFFFFFFFFFFFFF DUP2 GT ISZERO PUSH2 0xE80 JUMPI PUSH2 0xE7F PUSH2 0xA7A JUMP JUMPDEST JUMPDEST PUSH2 0xE8C DUP7 DUP3 DUP8 ADD PUSH2 0xDF9 JUMP JUMPDEST SWAP2 POP POP SWAP3 POP SWAP3 POP SWAP3 JUMP JUMPDEST PUSH1 0x0 DUP2 MLOAD SWAP1 POP SWAP2 SWAP1 POP JUMP JUMPDEST PUSH1 0x0 DUP3 DUP3 MSTORE PUSH1 0x20 DUP3 ADD SWAP1 POP SWAP3 SWAP2 POP POP JUMP JUMPDEST PUSH1 0x0 JUMPDEST DUP4 DUP2 LT ISZERO PUSH2 0xED0 JUMPI DUP1 DUP3 ADD MLOAD DUP2 DUP5 ADD MSTORE PUSH1 0x20 DUP2 ADD SWAP1 POP PUSH2 0xEB5 JUMP JUMPDEST DUP4 DUP2 GT ISZERO PUSH2 0xEDF JUMPI PUSH1 0x0 DUP5 DUP5 ADD MSTORE JUMPDEST POP POP POP POP JUMP JUMPDEST PUSH1 0x0 PUSH2 0xEF0 DUP3 PUSH2 0xE96 JUMP JUMPDEST PUSH2 0xEFA DUP2 DUP6 PUSH2 0xEA1 JUMP JUMPDEST SWAP4 POP PUSH2 0xF0A DUP2 DUP6 PUSH1 0x20 DUP7 ADD PUSH2 0xEB2 JUMP JUMPDEST PUSH2 0xF13 DUP2 PUSH2 0xCEB JUMP JUMPDEST DUP5 ADD SWAP2 POP POP SWAP3 SWAP2 POP POP JUMP JUMPDEST PUSH1 0x0 PUSH1 0x20 DUP3 ADD SWAP1 POP DUP2 DUP2 SUB PUSH1 0x0 DUP4 ADD MSTORE PUSH2 0xF38 DUP2 DUP5 PUSH2 0xEE5 JUMP JUMPDEST SWAP1 POP SWAP3 SWAP2 POP POP JUMP JUMPDEST PUSH1 0x0 DUP3 DUP3 MSTORE PUSH1 0x20 DUP3 ADD SWAP1 POP SWAP3 SWAP2 POP POP JUMP JUMPDEST PUSH32 0x596F7520617265206E6F7420746865206F776E65722C2061626F7274696E6700 PUSH1 0x0 DUP3 ADD MSTORE POP JUMP JUMPDEST PUSH1 0x0 PUSH2 0xF87 PUSH1 0x1F DUP4 PUSH2 0xF40 JUMP JUMPDEST SWAP2 POP PUSH2 0xF92 DUP3 PUSH2 0xF51 JUMP JUMPDEST PUSH1 0x20 DUP3 ADD SWAP1 POP SWAP2 SWAP1 POP JUMP JUMPDEST PUSH1 0x0 PUSH1 0x20 DUP3 ADD SWAP1 POP DUP2 DUP2 SUB PUSH1 0x0 DUP4 ADD MSTORE PUSH2 0xFB6 DUP2 PUSH2 0xF7A JUMP JUMPDEST SWAP1 POP SWAP2 SWAP1 POP JUMP JUMPDEST PUSH32 0x596F7520617265206E6F74206120677561726469616E2C20676F20617761792E PUSH1 0x0 DUP3 ADD MSTORE POP JUMP JUMPDEST PUSH1 0x0 PUSH2 0xFF3 PUSH1 0x20 DUP4 PUSH2 0xF40 JUMP JUMPDEST SWAP2 POP PUSH2 0xFFE DUP3 PUSH2 0xFBD JUMP JUMPDEST PUSH1 0x20 DUP3 ADD SWAP1 POP SWAP2 SWAP1 POP JUMP JUMPDEST PUSH1 0x0 PUSH1 0x20 DUP3 ADD SWAP1 POP DUP2 DUP2 SUB PUSH1 0x0 DUP4 ADD MSTORE PUSH2 0x1022 DUP2 PUSH2 0xFE6 JUMP JUMPDEST SWAP1 POP SWAP2 SWAP1 POP JUMP JUMPDEST PUSH32 0x596F7520616C726561647920766F746564000000000000000000000000000000 PUSH1 0x0 DUP3 ADD MSTORE POP JUMP JUMPDEST PUSH1 0x0 PUSH2 0x105F PUSH1 0x11 DUP4 PUSH2 0xF40 JUMP JUMPDEST SWAP2 POP PUSH2 0x106A DUP3 PUSH2 0x1029 JUMP JUMPDEST PUSH1 0x20 DUP3 ADD SWAP1 POP SWAP2 SWAP1 POP JUMP JUMPDEST PUSH1 0x0 PUSH1 0x20 DUP3 ADD SWAP1 POP DUP2 DUP2 SUB PUSH1 0x0 DUP4 ADD MSTORE PUSH2 0x108E DUP2 PUSH2 0x1052 JUMP JUMPDEST SWAP1 POP SWAP2 SWAP1 POP JUMP JUMPDEST PUSH32 0x4E487B7100000000000000000000000000000000000000000000000000000000 PUSH1 0x0 MSTORE PUSH1 0x11 PUSH1 0x4 MSTORE PUSH1 0x24 PUSH1 0x0 REVERT JUMPDEST PUSH1 0x0 PUSH2 0x10CF DUP3 PUSH2 0xBAC JUMP JUMPDEST SWAP2 POP PUSH32 0xFFFFFFFFFFFFFFFFFFFFFFFFFFFFFFFFFFFFFFFFFFFFFFFFFFFFFFFFFFFFFFFF DUP3 SUB PUSH2 0x1101 JUMPI PUSH2 0x1100 PUSH2 0x1095 JUMP JUMPDEST JUMPDEST PUSH1 0x1 DUP3 ADD SWAP1 POP SWAP2 SWAP1 POP JUMP JUMPDEST PUSH32 0x596F7520617265206E6F7420616C6C6F77656420746F2073656E6420616E7974 PUSH1 0x0 DUP3 ADD MSTORE PUSH32 0x68696E672066726F6D207468697320736D61727420636F6E74726163742C2061 PUSH1 0x20 DUP3 ADD MSTORE PUSH32 0x626F7274696E6700000000000000000000000000000000000000000000000000 PUSH1 0x40 DUP3 ADD MSTORE POP JUMP JUMPDEST PUSH1 0x0 PUSH2 0x118E PUSH1 0x47 DUP4 PUSH2 0xF40 JUMP JUMPDEST SWAP2 POP PUSH2 0x1199 DUP3 PUSH2 0x110C JUMP JUMPDEST PUSH1 0x60 DUP3 ADD SWAP1 POP SWAP2 SWAP1 POP JUMP JUMPDEST PUSH1 0x0 PUSH1 0x20 DUP3 ADD SWAP1 POP DUP2 DUP2 SUB PUSH1 0x0 DUP4 ADD MSTORE PUSH2 0x11BD DUP2 PUSH2 0x1181 JUMP JUMPDEST SWAP1 POP SWAP2 SWAP1 POP JUMP JUMPDEST PUSH32 0x596F752061726520747279696E6720746F2073656E64206D6F7265207468616E PUSH1 0x0 DUP3 ADD MSTORE PUSH32 0x20796F752061726520616C6C6F77656420746F2073656E642C2061626F727469 PUSH1 0x20 DUP3 ADD MSTORE PUSH32 0x6E67000000000000000000000000000000000000000000000000000000000000 PUSH1 0x40 DUP3 ADD MSTORE POP JUMP JUMPDEST PUSH1 0x0 PUSH2 0x1246 PUSH1 0x42 DUP4 PUSH2 0xF40 JUMP JUMPDEST SWAP2 POP PUSH2 0x1251 DUP3 PUSH2 0x11C4 JUMP JUMPDEST PUSH1 0x60 DUP3 ADD SWAP1 POP SWAP2 SWAP1 POP JUMP JUMPDEST PUSH1 0x0 PUSH1 0x20 DUP3 ADD SWAP1 POP DUP2 DUP2 SUB PUSH1 0x0 DUP4 ADD MSTORE PUSH2 0x1275 DUP2 PUSH2 0x1239 JUMP JUMPDEST SWAP1 POP SWAP2 SWAP1 POP JUMP JUMPDEST PUSH1 0x0 PUSH2 0x1287 DUP3 PUSH2 0xBAC JUMP JUMPDEST SWAP2 POP PUSH2 0x1292 DUP4 PUSH2 0xBAC JUMP JUMPDEST SWAP3 POP DUP3 DUP3 LT ISZERO PUSH2 0x12A5 JUMPI PUSH2 0x12A4 PUSH2 0x1095 JUMP JUMPDEST JUMPDEST DUP3 DUP3 SUB SWAP1 POP SWAP3 SWAP2 POP POP JUMP JUMPDEST PUSH1 0x0 DUP2 SWAP1 POP SWAP3 SWAP2 POP POP JUMP JUMPDEST PUSH1 0x0 PUSH2 0x12C6 DUP3 PUSH2 0xE96 JUMP JUMPDEST PUSH2 0x12D0 DUP2 DUP6 PUSH2 0x12B0 JUMP JUMPDEST SWAP4 POP PUSH2 0x12E0 DUP2 DUP6 PUSH1 0x20 DUP7 ADD PUSH2 0xEB2 JUMP JUMPDEST DUP1 DUP5 ADD SWAP2 POP POP SWAP3 SWAP2 POP POP JUMP JUMPDEST PUSH1 0x0 PUSH2 0x12F8 DUP3 DUP5 PUSH2 0x12BB JUMP JUMPDEST SWAP2 POP DUP2 SWAP1 POP SWAP3 SWAP2 POP POP JUMP JUMPDEST PUSH32 0x43616C6C20776173206E6F74207375636365737366756C652C2061626F727469 PUSH1 0x0 DUP3 ADD MSTORE PUSH32 0x6E67000000000000000000000000000000000000000000000000000000000000 PUSH1 0x20 DUP3 ADD MSTORE POP JUMP JUMPDEST PUSH1 0x0 PUSH2 0x135F PUSH1 0x22 DUP4 PUSH2 0xF40 JUMP JUMPDEST SWAP2 POP PUSH2 0x136A DUP3 PUSH2 0x1303 JUMP JUMPDEST PUSH1 0x40 DUP3 ADD SWAP1 POP SWAP2 SWAP1 POP JUMP JUMPDEST PUSH1 0x0 PUSH1 0x20 DUP3 ADD SWAP1 POP DUP2 DUP2 SUB PUSH1 0x0 DUP4 ADD MSTORE PUSH2 0x138E DUP2 PUSH2 0x1352 JUMP JUMPDEST SWAP1 POP SWAP2 SWAP1 POP JUMP INVALID LOG2 PUSH5 0x6970667358 0x22 SLT KECCAK256 DUP10 0xBA LOG1 0x1E 0x26 0x4F 0xB8 0x2F SWAP9 0xEA 0xC6 CALLCODE 0xAB PUSH27 0xD15C930E69FAD924666CF9D4AC1189B4739664736F6C634300080F STOP CALLER "
				},
				"gasEstimates": {
					"creation": {
						"codeDepositCost": "1013400",
						"executionCost": "25320",
						"totalCost": "1038720"
					},
					"external": {
						"allowance(address)": "2814",
						"confirmationFromGuardiansForReset()": "351",
						"guardians(address)": "2846",
						"isAllowedToSend(address)": "2868",
						"owner()": "2555",
						"proposeNewOwner(address)": "63045",
						"setAllowance(address,uint256)": "49460",
						"setGuardian(address,bool)": "27203",
						"transfer(address,uint256,bytes)": "infinite"
					}
				},
				"methodIdentifiers": {
					"allowance(address)": "3e5beab9",
					"confirmationFromGuardiansForReset()": "58e404b1",
					"guardians(address)": "0633b14a",
					"isAllowedToSend(address)": "0bc605ad",
					"owner()": "8da5cb5b",
					"proposeNewOwner(address)": "b1f8100d",
					"setAllowance(address,uint256)": "310ec4a7",
					"setGuardian(address,bool)": "2b8a1c5a",
					"transfer(address,uint256,bytes)": "be45fd62"
				}
			},
			"storageLayout": {
				"storage": [
					{
						"astId": 20,
						"contract": "contracts/SmartContractWallet.sol:SmartContractWallet",
						"label": "owner",
						"offset": 0,
						"slot": "0",
						"type": "t_address_payable"
					},
					{
						"astId": 24,
						"contract": "contracts/SmartContractWallet.sol:SmartContractWallet",
						"label": "allowance",
						"offset": 0,
						"slot": "1",
						"type": "t_mapping(t_address,t_uint256)"
					},
					{
						"astId": 28,
						"contract": "contracts/SmartContractWallet.sol:SmartContractWallet",
						"label": "isAllowedToSend",
						"offset": 0,
						"slot": "2",
						"type": "t_mapping(t_address,t_bool)"
					},
					{
						"astId": 32,
						"contract": "contracts/SmartContractWallet.sol:SmartContractWallet",
						"label": "guardians",
						"offset": 0,
						"slot": "3",
						"type": "t_mapping(t_address,t_bool)"
					},
					{
						"astId": 38,
						"contract": "contracts/SmartContractWallet.sol:SmartContractWallet",
						"label": "nextOwnerGuardingVotedBool",
						"offset": 0,
						"slot": "4",
						"type": "t_mapping(t_address,t_mapping(t_address,t_bool))"
					},
					{
						"astId": 40,
						"contract": "contracts/SmartContractWallet.sol:SmartContractWallet",
						"label": "nextOwner",
						"offset": 0,
						"slot": "5",
						"type": "t_address_payable"
					},
					{
						"astId": 42,
						"contract": "contracts/SmartContractWallet.sol:SmartContractWallet",
						"label": "guardiansResetCount",
						"offset": 0,
						"slot": "6",
						"type": "t_uint256"
					}
				],
				"types": {
					"t_address": {
						"encoding": "inplace",
						"label": "address",
						"numberOfBytes": "20"
					},
					"t_address_payable": {
						"encoding": "inplace",
						"label": "address payable",
						"numberOfBytes": "20"
					},
					"t_bool": {
						"encoding": "inplace",
						"label": "bool",
						"numberOfBytes": "1"
					},
					"t_mapping(t_address,t_bool)": {
						"encoding": "mapping",
						"key": "t_address",
						"label": "mapping(address => bool)",
						"numberOfBytes": "32",
						"value": "t_bool"
					},
					"t_mapping(t_address,t_mapping(t_address,t_bool))": {
						"encoding": "mapping",
						"key": "t_address",
						"label": "mapping(address => mapping(address => bool))",
						"numberOfBytes": "32",
						"value": "t_mapping(t_address,t_bool)"
					},
					"t_mapping(t_address,t_uint256)": {
						"encoding": "mapping",
						"key": "t_address",
						"label": "mapping(address => uint256)",
						"numberOfBytes": "32",
						"value": "t_uint256"
					},
					"t_uint256": {
						"encoding": "inplace",
						"label": "uint256",
						"numberOfBytes": "32"
					}
				}
			},
			"userdoc": {
				"kind": "user",
				"methods": {},
				"version": 1
			}
		}
	}
}